:1000000000800020B5020000DD020000DF020000D9
:10001000E1020000E3020000E50200000000000031
:10002000000000000000000000000000E7020000E7
:10003000E902000000000000EB020000ED020000F9
:100040004536000051510200F53A0000EF02000071
:10005000EF020000EF02000049390000EF0200004B
:10006000EF020000EF020000EF020000EF020000CC
:10007000EF020000093C0000EF020000EF02000068
:10008000EF020000C9220000EF020000EF020000B2
:10009000EF020000EF020000EF020000EF0200009C
:1000A000EF020000EF020000293E0000EF02000016
:1000B000EF020000EF02000000000000000000005E
:1000C000EF020000EF020000EF020000EF0200006C
:1000D000E5790200EF020000EF020000EF020000ED
:1000E000EF0200000000000000000000000000001F
:1000F00000000000EF02000000000000EF0200001E
:1001000000000000000000000000000000000000EF
:1001100000000000000000000000000000000000DF
:1001200000000000000000000000000000000000CF
:1001300000000000000000000000000000000000BF
:1001400000000000000000000000000000000000AF
:10015000000000000000000000000000000000009F
:10016000000000000000000000000000000000008F
:10017000000000000000000000000000000000007F
:10018000000000000000000000000000000000006F
:10019000000000000000000000000000000000005F
:1001A000000000000000000000000000000000004F
:1001B000000000000000000000000000000000003F
:1001C000000000000000000000000000000000002F
:1001D000000000000000000000000000000000001F
:1001E000000000000000000000000000000000000F
:1001F00000000000000000000000000000000000FF
:1002000010B5054C237833B9044B13B10448AFF350
:1002100000800123237010BDB00300200000000007
:1002200008BF020008B5034B1BB103490348AFF3F5
:10023000008008BD00000000B403002008BF0200D9
:10024000154B002B08BF134B9D46A3F5803A0021A8
:100250008B460F461348144A121A27F035FF0F4BEE
:10026000002B00D098470E4B002B00D09847002061
:10027000002104000D000D48002802D00C48AFF307
:10028000008027F0C7FE2000290004F0B9FF27F006
:100290009BFE00BF0000080000800020000000005E
:1002A00000000000B0030020FC3C00200000000023
:1002B000000000000649074A074B9B1A03DD043B78
:1002C000C858D050FBDC05F03FF8FFF7B9FF00003D
:1002D0000CC0020000000020B0030020FEE7FEE793
:1002E000FEE7FEE7FEE7FEE7FEE7FEE7FEE7FEE7E6
:1002F000F0B595B01D46164608460C4602F084FD42
:100300001A9B0D93CDE9086500252B46082205A907
:1003100020460A958DF82C500C9502F092FD079B13
:100320000293069B03939DF814308DF8115003F04F
:100330000302012A1DD1BDF81420059DC3F3C20399
:10034000C2F383168DF81030B20008230EA92046A0
:1003500002F077FDC5F3952508AB0093324602AB5A
:100360000EA9284600F026FD204602F051FD15B0EA
:10037000F0BD022AF8D1BDF81650C3F3C203C5F38D
:1003800089158DF810300827082D2E4628BF08261D
:100390003B4632460EA9204602F053FDAD1B08AB8A
:1003A00002AA31460EA8374400F068FD002DEBD1BB
:1003B000DAE70000014B01221A7070470D0400209B
:1003C0007047000070B5124D06460FCD88B06C46E0
:1003D0000FC495E80F00002E84E80F004FF0FF33A4
:1003E0004FF00602CDE90023CDE90233094A0A485D
:1003F0004FF0805308BF00226946069303F004F8CB
:1004000008B101F041FC054B1E7008B070BD00BF83
:1004100060990200B503000000000020CC0300201A
:1004200007B5044B0093044A4023FFF761FF03B074
:100430005DF804FB3D040000CD03002038B50D4BF2
:100440000D4D002018700D4804782D5DD2B21C4669
:1004500065B1043004F0A2F908B101F015FC084BB5
:100460001A7812B12378002BFBD038BD0C3003F082
:1004700035FFF1E70D040020A42500200000002036
:10048000CC03002008B50848084A0378D35C3BB188
:10049000043004F015F9BDE808400020FFF792BFD2
:1004A0000C3003F0C1FEF6E700000020A425002078
:1004B0000120FFF787BF000008B5FFF7F9FF0448E8
:1004C000042100F0D1FB034B01225A7108BD00BF8B
:1004D000DCBF020014000020037813F0040216D0E1
:1004E00003F00303012B03D0022B09D00120704736
:1004F0000A6800880232C0F3831002440A60F5E7FC
:100500000B684288023303EB92130B60EEE7104650
:10051000704700002DE9F04F044685B0861C00208E
:100520000F46154601F080FD454801683960D0E965
:100530000132134401335B1A824600F21C4700F576
:10054000836900F21448B3421BD30020002D72D0FF
:1005500004F00F039B0143F0050363F30F00DAF887
:100560000020DAF808301340033316444AF8230019
:100570000020CAF8006001F059FD012005B0BDE877
:10058000F08F0121384601F06CFF484601F084FFEE
:10059000404601F081FFDAF80400DAF808B0009074
:1005A00000EA0B0003300AEB80006946FFF794FF76
:1005B000009B50BB0BEA03020AEB820203F1020C20
:1005C000D2680192013303EA0B0B0AEB8B0B02F0AA
:1005D0000302012ADBF80C10CDF800C023D0022A58
:1005E00016D08346404601F05AFF10B1009BCAF86E
:1005F00004305946384601F034FFDAE90123134448
:10060000DAF8002001339B1A9DE70BEA0300C9E7E3
:10061000BDF80630C3F3891303334FEA114B0CEBDB
:1006200093030093DEE7BDF80430C3F383134FEA6E
:10063000114B6344F5E7A40544F006008FE700BFC3
:10064000E004002030B50A4B0A4A0B49D21AD208FE
:1006500000239A4201D1052006E031F823500468B6
:10066000A54202D10360002030BD0133F1E700BF95
:1006700024BF0200DCBF0200E00200202DE9F84F99
:10068000224B2348FF229A600022C3F81824C3E9B2
:100690000022C3F8142483F8202402F06EFB814664
:1006A00088B91C481C4E1D4CDFF87CA002F0D7FC1A
:1006B000A41BE4084D46A54208D10023184A194856
:1006C0001946A3421BD14846BDE8F88F4FF00008F9
:1006D000474606EBC50BBD420AD056F83710DBF88B
:1006E0000000142228F082F80028C8BF08F1010891
:1006F0000137BC42EFD12AF825800135DBE720F82D
:10070000231042F8041B0133DBE700BFE0040020A4
:10071000ECBF0200C899020024BF0200DCBF020047
:100720003C030020E2020020E002002007B5019017
:1007300031B9019A064B53F8320003B05DF804FB5F
:1007400001A8FFF77FFF0028F3D00020F5E700BFE6
:1007500024BF0200094B013903EBC000032909D86B
:10076000DFE801F00A0204060420704700797047B0
:1007700040797047002070470220704724BF020074
:1007800030B5124C00EB400054F8215002FA00F34F
:10079000072202FA00F06B400D4A03406B40C3F39E
:1007A000821044F8213002EB8101C3F3C20282427D
:1007B00038BF0246C3F34220824203F0070338BF2A
:1007C0000246934238BF13464B8030BD3C030020A5
:1007D000E002002037B5154B93F8203404460BB9DE
:1007E00018B90024204603B030BD27F0F7FF0130D0
:1007F000009001230E486A4601A902F03EFC05461E
:100800000028EED12146009A019827F035FCDDE959
:1008100000231344064803F8015C009902F065FCCC
:100820000099034802F07AFC019CDBE7E004002019
:10083000C8990200034BD3E90030C31A584258410B
:10084000704700BFE00400202DE9FF47FFF7F2FFEB
:100850000646002840F01A818D4DC5F81804BFF3F4
:100860004F8F6B68AC6800932340033305EB830024
:100870006946FFF731FE009B18B1D5F81824002A0D
:1008800069D004EA0302991C013305EB820223407C
:1008900005EB8303D268DB68029302F00303022BAB
:1008A000019200916AD1BDF806307A489DF8046043
:1008B000C3F38918B8F1500FC14628BF4FF0500953
:1008C00069F38F1309F10801ADF8063002F06DFAF3
:1008D000C6F3C2060746002800F0BF8002F094FA73
:1008E0000023082201A9384602F0A1FA009924EA5F
:1008F00001020132B9EB820F4FEA820337D95FFA66
:1009000089F983B32140DCB2A9EB040903315FFA12
:1009100089FAA146604C05EB810108234A46384616
:1009200002F085FA34B109F10803524621463846EF
:1009300002F07DFA009B08F1030803EB9803009393
:10094000D5F81834002B52D1D5F81044DFF85C915B
:100950004FF0070870E02A689A4285D86A603046EE
:1009600004B0BDE8F0874C491C469A46D5E70C40D8
:10097000E11C08234A4605EB8101D8E7012B6CD125
:10098000BDF804604348C6F38311062928BF062139
:1009900061F3891602318900ADF8046002F005FAAE
:1009A000C6F3C2060746002857D002F02DFA0023EE
:1009B000082201A9384602F03AFA4FF00008BDF8C3
:1009C0000420C2F383124FEA8803904503F1080321
:1009D000B6D200994A1C21400331009205EB8101F7
:1009E0000422384602F023FA08F10108E7E7384606
:1009F00002F00EFAFFF71EFF80F00100C6B2AEE76C
:100A0000E3685A79B2B11B79BDF8081003EB4302D1
:100A100059F8211008FA02F3052E03EA010323FA1C
:100A200002F308BF0326B34204D3236839461B6888
:100A300020469847E3681C68002CE1D1384602F054
:100A4000E7F9204601F0F0FAD5F818340BB9009B0D
:100A50006B60002001F0EAFACCE7D5F8104474B9D5
:100A60000E4B5B88012BC5D90D4B0E480E49C01AA1
:100A7000C008000440F0020000F066F8BAE72368FE
:100A800020469B689847E3681C68E8E7002666E70D
:100A9000E0040020ECBF0200EC040020FC02002077
:100AA00024BF02005CBF02009D9902003C030020AD
:100AB0002DE9F74F224D04460F46924601A9012227
:100AC0001846D5F808909B46FFF724FD20B3019EF9
:100AD0004FF00008B21CD84508EB020126D1194896
:100AE000002101F083FC80F31000000440EA144070
:100AF000E400731C04F0380403EA090306EA09065B
:100B000044F0010405EB8303033644EA881444EA05
:100B10008724D86045F8264095F820341BB1FFF7AC
:100B200093FE0028FBD103B0BDE8F08F09EA010174
:100B300005EB81015AF82830CB6008F10108CAE7BB
:100B4000E0040020FC08002000231A46FFF7B0BF95
:100B500007B50123019201AAFFF7AAFF03B05DF8D0
:100B600004FB07B5CDE9002302236A46FFF7A0FF87
:100B700003B05DF804FB1FB5CDE90123069B039389
:100B800001AA0323FFF794FF05B05DF804FB1FB52E
:100B9000CDE90023069B0293079B03936A46042337
:100BA000FFF786FF05B05DF804FB00002DE9F34771
:100BB0002B4D0446D01C8946164601A90022800808
:100BC000AF68FFF7A7FCA8B3DDF80480AB6808F1B5
:100BD00002000190013338401B1AB6EB830F00F17D
:100BE00003004FEA830A05EB80002DD832464946C0
:100BF00027F042FA1B48002101F0F8FB80F31000B7
:100C000008F101033B40220C05EB830307EA0807C8
:100C100042EA00400337D860E40055F8273004F07A
:100C2000380444F0020444EA865203F47C131A4365
:100C300045F8272095F820341BB1FFF705FE002862
:100C4000FBD102B0BDE8F0875246494627F014FABE
:100C5000A6EB0A0209EB0A0105F10C00C8E700BF88
:100C6000E0040020FC0800202DE9F8431E4B8846D4
:100C7000D3F81014044600250A46A2B9E1680D71A4
:100C8000D3F81014A9B9C3F81044E3681A60174BDD
:100C9000174EF61AF608002703F10709B74211D1DB
:100CA0002846BDE8F883D2681079A84216D01268A9
:100CB000E3E7C968E26809681160D3F81034DB68BB
:100CC0001C60E4E719F83720E36842453946187993
:100CD00028BF4246FFF754FD0137DFE701350A2DF3
:100CE000CAD14FF0FF35DBE7E004002024BF02004B
:100CF000DCBF020007B503460846197A052911D062
:100D00005B7A2BB1094A0A49019001F027FC01984E
:100D10000849019001F022FC019803B05DF804EB52
:100D200001F011BC002AF8D0F2E700BFD49902000C
:100D30008DA50200D4A3020030B5C38885B0044657
:100D40000D4633B1144A00921449154A284601F061
:100D500005FC217A05291DD0637A4BB1A088FFF7E5
:100D6000F9FC104B104953F82020284601F0F6FBFF
:100D7000227A0E4BA08853F8222003920021FFF71D
:100D8000D5FC039A0A490346284605B0BDE8304021
:100D900001F0E4BB05B030BDD4990200E199020036
:100DA000D9990200649A02008DA50200889A020077
:100DB000F99902002DE9F04385B01F460C9D0023F0
:100DC00095F80C902B7306460C46904629463846FB
:100DD000FFF7B2FFB8F1060F09D8DFE808F00412F8
:100DE000181F283340003146284601F0B7FB002287
:100DF00029463846FFF77EFF85F80C9005B0BDE820
:100E0000F08322683146284601F0A8FBEFE7D4E9D9
:100E100000233146284601F0A1FBE8E7A3680093D0
:100E20003146D4E90023284601F098FBDFE7E36868
:100E30000193A36800933146D4E90023284601F0CA
:100E40008DFBD4E723690293E3680193A3680093C1
:100E50003146D4E90023284601F080FBC7E76369E7
:100E6000039323690293E3680193A36800933146D7
:100E7000D4E90023284601F071FBB8E708292DE9E1
:100E8000F84F80460E4617461C463BD8002593F87F
:100E90000C901D7319461046FFF74EFFDFF88CA02B
:100EA000DFF88CB0AE422FD918F8052059462046FD
:100EB00001F054FB0135082DF4D11949194DDFF823
:100EC00074A0204601F04AFB4FF0000B5E4522D98A
:100ED00018F80B207E2A1CD8134BD15C11F0970F09
:100EE00008BF2E225146204601F038FB0BF1010BC2
:100EF000BBF1080FEAD1012221463846FFF7FAFE7E
:100F000084F80C90BDE8F88F5146204601F026FB8E
:100F1000D0E72E22E6E72946204601F01FFBE5E751
:100F20000D9A02000B9A020070BD0200099A02009D
:100F3000039A02000F9A0200074B1B5C1F2B8ABF0B
:100F4000064A4FF0A04203F01F03D2F80405D84030
:100F5000C04300F001007047A09A02000003005057
:100F6000074B1B5C1F2B86BF064903F01F034FF086
:100F7000A041012202FA03F3C1F80C35704700BF0B
:100F8000A09A020000030050074B1B5C1F2B86BF7A
:100F9000064903F01F034FF0A041012202FA03F3B8
:100FA000C1F80835704700BFA09A02000003005046
:100FB00008B50020FFF7E8FF0120FFF7E5FF02205A
:100FC000FFF7E2FFBDE808400320FFF7DDBF08B5EB
:100FD0000020FFF7C5FF0120FFF7C2FF0220FFF747
:100FE000BFFFBDE808400320FFF7BABF0A4B185CFB
:100FF0001F288ABF094B4FF0A04300F01F00D3F811
:1010000004250121814021EA02000A40C3F80805B5
:10101000C3F80C25704700BFA09A020000030050DF
:10102000074B1B5C1F2B8ABF064A4FF0A04203F000
:101030001F03D2F81005D840C04300F001007047EC
:101040009C9A0200000300500B2809D00C2809D0FC
:10105000182809D019280CBF03204FF0FF30704723
:10106000002070470120704702207047C20710B56A
:1010700004460CD54FF0A0430322C3F83427C3F82D
:101080003827C3F83C27C3F84027FFF791FFA30791
:101090000AD54FF0A0430C22C3F82C27C3F8302701
:1010A000C3F86027C3F8642710BD000010B50D49D0
:1010B000A1F5BC72914201D800200FE08C1AE30F19
:1010C00003EBE4035B1002EBC30452F833308342BA
:1010D00005DC02DA04F10802ECE7606810BD214685
:1010E000E8E700BF389F020008B5FFF7DFFF024BBB
:1010F000002808BF184608BDAA9D020007B50023B6
:1011000001938DF803300DF1030002F02FF99DF8E3
:101110000330032BF7D904210DEB010002F030F965
:1011200018B9019803B05DF804FB0020FAE708B590
:1011300000F0A0FA00F08AF8002002F0E7F820B1F1
:10114000852802D000F0D8F8FCE7FFF7D7FF27F09A
:10115000B1FA02F097F910B900F0CEF8FCE708BD3B
:1011600001F07ABE08B500F0C7F8FCE762B6704738
:1011700072B67047FFF7C2BF00F0C2BA38B50D466D
:1011800014465AB151B148B102F0C2F9294620467D
:1011900002F092F910B900F0AFF8FCE738BDEFF3B8
:1011A0000580003818BF01207047000007B54FF0D8
:1011B00080531A6E596E064B02F0FF021343CDE9BD
:1011C00000130822694626F057FF03B05DF804FBC0
:1011D0000036CEF4004870479C090020704701F0AB
:1011E00051BE704708B502F0B1F80748074A0378C6
:1011F000D35C23B1BDE80840043003F061BABDE818
:1012000008400C3003F010B800000020A425002096
:1012100008B5002002F07AF810B100F06DF8FCE794
:10122000BDE80840FFF744B910B5044658B1FFF7D0
:10123000D9FF204600F080FA01F024FE00F09AFA6F
:101240000446FFF7E5FF204610BD000008B509F091
:10125000A9FF48B9054B1A78054B1B78134303D0F7
:10126000BDE8084009F0A4BF08BD00BFD9010020B7
:10127000DC0100202DE9F84307460D4609F092FFF6
:1012800058B1184C184BDFF86890DFF86880E41A02
:10129000E408240444F003040DB9BDE8F883D9F848
:1012A0000000C0F10806AE42A8BF2E4632463946BD
:1012B000404426F0E1FED9F800203244082AC9F85B
:1012C00000203744A5EB0605E6D1084B5B88022BCE
:1012D00003D941462046FFF769FC0023C9F80030D6
:1012E000DAE700BFD4BF020024BF020038030020A9
:1012F000E8090020E009002010B50C4C226882B1FA
:101300000B4B5B88022B0AD90A480B4B0B49C01ABE
:10131000C008000492B240F00300FFF747FC00232E
:101320002360BDE81040FFF78FBA00BFE809002036
:1013300038030020D4BF020024BF0200E0090020CF
:101340000378022B01D809F041BF70474FF01023FA
:1013500058694FF08053411C1A695B6908BF03FB51
:1013600002F0A0F5A040704710B54FF010234FF0E9
:1013700080525B69116952690B4C581C08BF02FB13
:1013800001F32361FFF7E2FF084BE0600022084908
:10139000C3F80821204601F0AFFA18B1BDE81040AB
:1013A000FFF7E0BE10BD00BF98030020EC0900204D
:1013B000F0A102004FF4005070470220704708B5BA
:1013C00013460A4631B143B10146184626F054FE91
:1013D000002008BD6FF00A00FBE76FF00B00F8E794
:1013E0000128F8B507460C4616461D4610D80B4492
:1013F000B3F5005F0FD28AB19DB1FFF7A7FF04EBF1
:10140000473421182A46304626F036FE0020F8BD23
:101410006FF03800FBE76FF01600F8E76FF00B0095
:10142000F5E76FF00C00F2E70128F7B507460C4628
:1014300016461D4624D80B44B3F5005F23D22AB3C9
:10144000AB0826D0FFF782FF04EB47310C1809F0F8
:10145000C5FE07460028FAD109F0B0FE21460E4825
:1014600000972B46324601F083FA044609F0B6FE97
:101470000028FBD1201E18BF0120404203B0F0BD60
:101480006FF03800FAE76FF01600F7E76FF00B0027
:10149000F4E76FF00C00F1E79803002001282DE934
:1014A000F041064624D8FFF751FFDFF8508000EBEB
:1014B000463505F5005709F091FE04460028FAD19B
:1014C00009F07CFE234601222946404601F010FB2C
:1014D00088B909F083FE04460028FAD105F5805545
:1014E000AF42E8D1304609F081FE2046BDE8F081E8
:1014F0006FF03800FAE74FF0FF30F7E7980300206D
:1015000010B5084CD4F8083153B19BB2D4F804118B
:1015100094F800012246FFF787FF0023C4F8083142
:1015200010BD00BFEC0900202DE9F8431C4C1D46FE
:10153000D4F8083181460F4690466BB194F80021EB
:10154000824207D1D4F804211A44914202D1B3F562
:10155000807F01D1FFF7D4FFD4F8080118B984F8CF
:101560000091C4F80471C0F58076AE4234BFB6B2C3
:101570002E464EB132464146204426F07DFDD4F839
:1015800008313344C4F80831AD1BADB215B9284653
:10159000BDE8F883FFF7B4FF3744B044DCE700BF91
:1015A000EC09002007B50B4B0093FFF7CFFE042298
:1015B00000F580410DEB020026F05EFD0422694635
:1015C0000DEB020026F04AFDB0FA80F0400903B0AE
:1015D0005DF804FBE737DDF607B5CDE90010FFF74E
:1015E000B5FEDDE9001200F58040043003B05DF87F
:1015F00004EBFFF7E4BE37B5054601911446FFF74B
:10160000A5FE04F58044043401992A46204403B021
:10161000BDE83040FFF7D3BE00487047409F02004E
:1016200002490022C0E90012704700BF040003060F
:101630007047B0F5A27F01D109F0DABD7047000014
:1016400010B5084CFFF794FD2378012B05D1FFF767
:10165000E3FF02F077FB00232370BDE81040FFF7A3
:1016600085BD00BF100B0020014B1878704700BFEC
:10167000100B00201FB502A8FFF7D2FFFFF7CCFF29
:10168000104A02A902F0D6FA08B1FFF76BFDFFF786
:10169000C3FF0368D3F81045FFF7BEFFE2B24FF473
:1016A0007031012421FA02F202232146009402F053
:1016B000A5FBFFF7B1FF02F02BFB034B1C7004B03E
:1016C00010BD00BF33160000100B002008B5FFF757
:1016D0004FFD0A4B1B782BB9FFF7CCFFBDE8084044
:1016E000FFF744BDFFF798FF02F054FB0028F5D147
:1016F000FFF792FF02F00CFBF0E700BF100B002099
:1017000038B5FFF735FD0B4B1B78012B0FD1FFF7D9
:1017100083FF022102F04AFB04460DF005FB05465B
:10172000FFF724FD4FF4705000FB054038BD002446
:10173000F3E700BF100B002010B5044626F0FAFABC
:10174000094B186074B1094B094A18604FF47A705C
:10175000444300219A60D9605C60BDE8104018469F
:1017600026F0F4BA10BD00BFF80A0020FC0A0020E1
:101770003116000008B526F0DDFA054B1B68C3F5ED
:101780007973033318444FF47A73B0FBF3F008BD58
:10179000F80A002030B50F4D8BB022F001FA0FCDC2
:1017A00001AC0FC40FCD0FC42B68236001A824F037
:1017B00059FFFFF713FD012022F064FA22F016FA18
:1017C000032801D122F01EFA012022F05DFA0BB0AD
:1017D00030BD00BF489F020022F0DEB907B5ADF86A
:1017E00006000DF1060022F0D5F903B05DF804FB08
:1017F00007B5ADF806000DF1060022F0CFF903B0F1
:101800005DF804FB4FF4705310B503FB00F4204661
:1018100022F015FA0028FAD010BD22F0A5B922F066
:10182000B2B910B5044622F0B0F9207010BD0038EE
:1018300018BF012022F026BA003818BF012022F07C
:101840001FBA08B922F0E1B922F0E7B908B522F0D1
:10185000CDF9C31E5842584108BD08B522F0C6F95B
:10186000023818BF012008BD10B50446012C1046EF
:1018700004D0042C05D00024204610BD22F006FA26
:10188000FAE7BDE81040002122F0CDB910B50C46B2
:10189000FFF7A0FC036A013303622046BDE8104055
:1018A00004F0BCBD22F0D0B908B507290AD8DFE89A
:1018B00001F0040A141B21272D33FFF78BFC436A28
:1018C0000133436208BDFFF785FC836A01338362FD
:1018D0000120BDE8084004F0DBBDFFF77BFCC36AD4
:1018E0000133C3620420F4E7FFF774FC036B013398
:1018F0000363EDE7FFF76EFC436B01334363E7E7F8
:10190000FFF768FC836B01338363EBE7FFF762FC4F
:10191000C36B0133C363DBE7FFF75CFC036C01338C
:101920000364D5E730B585B0CDE9022104460193C3
:10193000FFF750FC05680399DDE9013201350560C8
:10194000204605B0BDE8304004F0C6BD08B5062805
:101950000AD8DFE800F0040D13191F252B00FFF74C
:1019600039FC436801334360134B00221A6008BD01
:10197000FFF730FC836801338360F5E7FFF72AFC4B
:10198000C3680133C360EFE7FFF724FC0369013349
:101990000361E9E7FFF71EFC436901334361E3E7B5
:1019A000FFF718FC836901338361DDE7FFF712FC61
:1019B000C3690133C361D7E740310020C30710B5C5
:1019C00007D4F023054A4008145C234019431154FE
:1019D00010BD0901C9B20F23F4E700BF200B00209E
:1019E00030B5094B1C78094B196800239C4202DC76
:1019F0000022104630BD11F83350854201EBC3027E
:101A0000F7D00133F2E700BF110B0020400B00209C
:101A100013B504460191FFF7E3FF38B143682BB1DA
:101A20000199204602B0BDE81040184702B010BD31
:101A3000034B044819680022490800F0ECB900BFC4
:101A4000140B00202000002010B5C0B2FFF7C8FF23
:101A50000446007801F06AFF63785A1E53425341EE
:101A6000834208D1044BD3E90023134303D1BDE8DB
:101A70001040FFF7DDBF10BD180B002038B5334A0A
:101A800043080446D35CC2074CBF1B0903F00F0395
:101A90000D46042B59D8DFE803F003222A3639001B
:101AA000002952D00121FFF789FF002000F0BCFA85
:101AB0000120A4F12003C4F12001254A20FA01F1FC
:101AC00000FA03F30B43A040D2E9004120430B434B
:101AD000C2E900030020BDE8384000F0A7BA0029A1
:101AE00018BF02212046BDE83840FFF767BF41B16B
:101AF0000321FFF763FF20460121BDE83840FFF7CF
:101B000087BF0121EEE701BB0421EBE709B1032107
:101B1000E8E7FFF753FF29462046FFF779FF2846FD
:101B200000F082FA0120A4F12003C4F12001084A48
:101B300020FA01F100FA03F30B43A040D2E900417F
:101B400024EA000021EA0303C2E738BD200B00208D
:101B5000180B00202DE9F041124E134F002433786A
:101B6000A34208DC114BD3E90023134318D0BDE88E
:101B7000F041FFF75DBF3D6805EBC40815F8340080
:101B800001F0D4FE98F801305A1E53425341181AFE
:101B90004142414115F83400FFF770FF0134DEE7A0
:101BA000BDE8F081110B0020400B0020180B002035
:101BB000092AF7B505460C4616463CD901F0E6FD64
:101BC000D8B11E4B1E481D601E4B1F4F1C701F4B73
:101BD000002120221E6026F077FA1D4B00200021F4
:101BE000C3E90001013CE4B20326FF2C0BD1194AE2
:101BF0001948002100F004F903E001F08FFD0028EE
:101C0000DFD003B0F0BD9DF8063015F834008DF834
:101C1000046005EBC40223F007038DF8063001A928
:101C200093788DF805303A4601F0BAFD013CE4B2F4
:101C30000028DAD0E5E70720E3E700BF400B0020EB
:101C4000200B0020110B0020491A0000140B00206B
:101C5000180B0020551B00009C9F020070B5084D1A
:101C6000084E00242B789C4201D3002070BD3368BD
:101C7000012113F8340001F00FFE0134F2E700BF38
:101C8000110B0020400B00201FB50021039001AA7A
:101C900044F20100CDE90111FFF7A3FA05B05DF8A8
:101CA00004FBD0E90223D1E90201994208BF904226
:101CB0002CBF01200020704708B50B4800F0EFFA58
:101CC0000A4B0B49D3E900231218D1E9000143F173
:101CD00000038B4208BF824203D212F1807243F1AB
:101CE00000031046194608BD5C000020480B002088
:101CF000B00B002037B505460C460A4801A900F094
:101D000000FB60B10570446001A9064800F023FBA8
:101D100018B1054800F0C8FA002003B030BD042017
:101D2000FBE700BF480000205C00002038B5194BDD
:101D30001B78044613B90025284638BD0028FAD080
:101D400090F8203003F0FF05002BF4D0FFF7B4FF2C
:101D5000D4E90223994208BF904216D323690BB9F4
:101D600084F82030D4E90530984721690029E2D071
:101D700094F8203003F0FF05002BDCD0D4E90223D7
:101D8000521843F10003C4E902230348214601F03D
:101D9000E2F9D1E7500B0020C09F020013B5114BB0
:101DA00011491868019008231048582200F096FA4B
:101DB000044698B90E4A0F4801A900F047F90446B5
:101DC00060B90C48012100F04BFA01230A4A094886
:101DD000194600F0A7F9094B01221A70204602B0FB
:101DE00010BD00BFBC9F0200540B00204800002023
:101DF000651E00005C000020FFFF7F00500B0020EC
:101E00003AB103685A614A1E51425141196100209A
:101E100070470720704738B590F8203004460D46CB
:101E200083B98261FFF748FF2369401941F100013E
:101E3000C4E9020103B1256121460020BDE8384014
:101E4000FFF758BF002038BD0023014680F820303E
:101E50000120FFF74FBF0000014800F020BA00BF8B
:101E60005C0000202DE9F04F85B0804600F001FABB
:101E700040B15C4AD2E9003113F1807341F10001B5
:101E8000C2E900310021404600F003FA38B1564E55
:101E9000336823B13068FFF749FF00233360012125
:101EA000404600F0F6F920B1FFF706FF4F4BC3E9BB
:101EB00000014F484C4F4F4EDFF8409103A900F00E
:101EC0005AFA002846D1DFF82C91474EDFF830A1AE
:101ED000484601F056F93368002879D083B1336859
:101EE000D0E90201D3E90223994208BF90422ED2E1
:101EF000336893F820301BB13168484601F02BF964
:101F0000484601F038F9D0E902B307460193FFF7DC
:101F1000D3FE019BBBEB000463EB0105012C75F1C3
:101F2000000348DBB4F5350F43D3FFF795FF324A82
:101F300002444FF496030021504600F017F90028A0
:101F400041D1336813B9404600F0E4F8376005B07A
:101F5000BDE8F08F0378012B20D0022B09D14FF080
:101F6000000A304601F007F9002837D080F820A099
:101F7000F7E753B9436893F8202032B9012283F878
:101F800020204168304601F0E6F803A9184800F027
:101F90001DFA03A9164800F0EEF992E741683B6884
:101FA000994202D100233B60EFE7304601F0ECF8A4
:101FB000EBE7BA68BDE70021504600F05FF938460C
:101FC000FFF7B4FE01E00D28F9D0002333607FE76E
:101FD000002BBCD1404600F0A1F8B8E7012389F8F6
:101FE0000030D2E7480B0020B80B0020B00B0020D7
:101FF00048000020C09F0200FFFFB400500B0020EB
:102000005C00002072B6024A136801331360704707
:10201000BC0B0020034A1368013B136003B962B68E
:10202000704700BFBC0B0020FFF7ECBFFFF7F2BF0B
:10203000435882B03BB10023435043580193019B66
:10204000012002B070471846FBE7000070B5284C2D
:102050004379284D44F82320274C04EBC3031B7914
:1020600073B16B88012B09D92448254B2549C01A27
:10207000C008000440F00200FEF766FD082070BDB5
:1020800003680A88C3F8082590F904308A78002B81
:102090004FEA4212AFBF03F160431B4903F00F0345
:1020A000D2B2A9BF03F56143CA54D2B283F8002368
:1020B00090F9043015495E09012203F01F0302FA6A
:1020C00003F341F82630437904EBC30144F83300AD
:1020D0006B880A71022B09D90848094B0C49C01AB0
:1020E000C008000440F00300FEF72EFD0020C6E704
:1020F000C80B002004030020C00B00206CBF0200AE
:1021000024BF0200CC9F020014ED00E000E100E0DB
:10211000EE9F0200036801221A60704703680122E3
:102120005A607047F7B504684FF480358D40C4F8A5
:1021300008530468C4F8485301F15004A400066829
:10214000A4B20027375134590194019C046801F569
:10215000A87122F07F4244F821200268C2F844535B
:1021600013B10368C3F8045303B0F0BD2DE9F3477E
:1021700099464FF48038036808FA01F8C3F8488399
:102180000368C3F8088322F07F4502680E46D2F840
:10219000041502EB860206F15007D2F84035C2F86A
:1021A0004015BF000268BFB24FF0000A42F807A016
:1021B0005B1AD259009223F07F43012B009A044608
:1021C0000BD1264B4FF4806043F0010398472368FE
:1021D00043F807A0DB590193019B2368D3F80475EA
:1021E000C3F84483EB1B23F07F43012B06F5A8764D
:1021F000236819D1013543F82650184B4FF48060FD
:1022000043F0010398472368D3F804359F4209D16E
:102210002368C3F8448323680020C3F8048302B012
:10222000BDE8F0870D20FAE743F826502068D0F883
:1022300004156A1A013AC9F1FF1322F07F4203F52F
:102240007F439342EED3002AE2D1013540F8265075
:102250002368D3F804359942D9E700BF00A00200F3
:1022600002680223C2F8443311B10268C2F8043391
:10227000704700684FF48271FFF7DABE4FF4803385
:1022800003FA01F10368C3F848130368C3F808139D
:10229000704750318900006889B2FFF7C9BE0368F2
:1022A000D3F804057047000090F9043001215A0961
:1022B00003F01F0301FA03F34032024941F82230D0
:1022C000704700BF00E100E0024B034A1B68106842
:1022D000184700BFC80B0020C00B002010B561B12B
:1022E000B2FBF3F403FB1424A4B244B9C0E9001414
:1022F00084608281C381204610BD0E20FCE7092046
:10230000FAE737B550E8013F9DB2C4892544848976
:10231000A54228BF2D1B0489A54202BFBFF32F8F02
:10232000002207E0C5EA030540E80154002CE9D18A
:102330004FF001028DF803200193019B9DF80320CB
:102340000B6002F0FF0322B10B880068184403B051
:1023500030BD1846FBE70A884B889A4209D150E8FD
:10236000012FC2EA024240E80123002BF7D10120ED
:1023700070470020704737B550E8023F1FFAA3F5B9
:10238000C488A54202BFBFF32F8F00220DE0C4898D
:1023900025448489A54228BF2D1BC3EA054540E892
:1023A0000254002CE8D14FF001028DF80320019374
:1023B000019B9DF803200B6002F0FF0322B14B88C4
:1023C0000068184403B030BD1846FBE70A884B8804
:1023D0009A4209D150E8022FC2EA224240E8022381
:1023E000002BF7D1012070470020704710B503463D
:1023F00053E8000F0A4643E8002494F0000FF7D199
:1024000010BD10B5034653E8000F40EA010243E84F
:10241000002494F0000FF6D110BD10B5034653E828
:10242000002F42EA010043E8000494F0000FF6D1C7
:1024300010BD10B5034653E8000F00EA010243E85F
:10244000002494F0000FF6D110BD10B5034653E8F8
:10245000002F02EA010043E8000494F0000FF6D1D7
:1024600010BD10B5034653E8002F02EB010043E80E
:10247000000494F0000FF6D110BD10B5034653E8E8
:10248000002FA2EB010043E8000494F0000FF6D106
:1024900010BD0121FFF7B5BF0121FFF7BEBF00212D
:1024A000FFF7C7BF0021FFF7D0BF10B590B1D0E94B
:1024B000012301689B1ADBB20A60013BDBB2FF2BF0
:1024C000026802D10020107110BD11684C1C14600C
:1024D0000B70F2E70E20F7E738B504460020FFF74F
:1024E000A3FD2268616813688B4215D9591E1160DB
:1024F00013F8015CA28AE36802FB05352268A36831
:1025000011685B1A1179DBB2994200D21371002075
:10251000FFF78CFD284638BD0025F8E738B505469D
:1025200000200C46FFF780FD2A681368591C1160D3
:10253000E968641AA98AB4FBF1F41C70BDE838405C
:102540000020FFF773BD10B5826804462AB14369C5
:102550000168006998470023A36010BD0EB403B55D
:10256000039921B104AB01AA019300F077F802B0FE
:102570005DF804EB03B070470A2938B504460D46F0
:1025800002D10D21FFF7F8FFA3682268591CA16052
:10259000D554D4E901329A4204D32046BDE83840EC
:1025A000FFF7D1BF38BD00002DE9F84F9846DDE9AF
:1025B0000A43154682460F460A464FF00109AA42D1
:1025C0000FD2C14538BFC14613F0010B01D16CB920
:1025D00000240126B8F1010F1BD908F1FF386E4322
:1025E000F8E709F10109B2FBF5F2E8E79B070ED520
:1025F000B8F1000F0CBF30262026A145E9D2013CDE
:1026000031465046FFF7B8FF002CF6D1E0E7202610
:10261000F3E7B7FBF6F39D42E1D9DFF83C80B7FB67
:10262000F6F3504618F8031006FB1377FFF7A4FFE4
:102630003346AB42B6FBF5F6F1D2BBF1000F02D048
:102640000CB1A14501D3BDE8F88F20215046013CD3
:10265000FFF792FFF4E700BF06A002002DE9F74F55
:10266000054617468846002900F0428118F8011BEC
:1026700049B92B7B002B00F03B81284603B0BDE815
:10268000F04FFFF760BF252940F0B780002698F88B
:1026900000302D2B424608F1010823D0302B24D0E6
:1026A0002B2B25D000242A2B02F1010123D13B68DA
:1026B0001A1D3A601B680A461C4413782E2B26D13B
:1026C00001324FF0000A104610F8011BA1F1300C46
:1026D000BCF1090F1DD80A2303FB0A13A3F1300A2A
:1026E0000246F0E746F00106D1E746F00206CEE7E3
:1026F00046F00406CBE711F8013CA3F130000928AD
:10270000DBD80A2202FB0434303C0A46CBE74FF008
:10271000000A12F8011B01F0FB0068289046F8D06F
:10272000782909D86F290CD8632962D022D82529A5
:1027300063D0582900F0888098F80030002B95D19C
:1027400097E770390829F7D801A353F821F000BFA3
:10275000CB28000039270000392700005928000045
:1027600039270000372800003927000039270000EA
:1027700049280000642901D06929DDD13A68111D7A
:102780003960D2F8009089EAE972A2EBE9724FF061
:10279000010B092A35DCD34538BFD3462CB1B9F13A
:1027A000000F01DB720700D5013CB30702D5BAF177
:1027B000000F03D0F00701D44CBB0024B9F1000F87
:1027C0002DDAC9F100092D212846FFF7D5FE06F0C4
:1027D0000302022A04D1BAF1000F01D11CBB00246C
:1027E000CDE9004653460A2249462846FFF7DCFE5B
:1027F000A2E73B681A1D3A6019782846FFF7BCFE2D
:102800009AE70A230BF1010BB2FBF3F2C1E7A345F0
:10281000D4D220212846013CFFF7AEFECCE7710759
:10282000D5D52B21D0E7A345DAD230212846013C6B
:10283000FFF7A2FED2E73968CDE900460A1D3A60EB
:1028400053460A220968D0E739680A1D3A60CDE983
:10285000004653461022F5E73B681A1D3A6016F011
:102860000106D3F8009028D1B9F1000F03D04846F3
:1028700025F0B4FF0646B44200D904BB09F1FF3984
:1028800019F8011F00293FF457AF2846FFF774FEDF
:10289000F6E728460136FFF76FFE19F80610002903
:1028A000F7D1A642BFF448AF002C3FF445AF20213A
:1028B0002846013CFFF760FEF3E70026EDE7202104
:1028C0002846013CFFF758FED5E73B681A1D3A60E1
:1028D000302128461C68FFF74FFE78212846FFF775
:1028E0004BFE00220823CDE90032214610227CE76E
:1028F00003B0BDE8F08F00BF13B50B46114698B981
:10290000144B5B886BB1144B1448154AC01A0E2344
:10291000C0080093134B0004134940F00100FEF778
:102920002AF90E2002B010BD6BB90A4B5B88002B50
:10293000F7D0094B09480D4AC01AC0080E2300936E
:102940000004084BE8E703601B6802B0BDE81040D4
:10295000184700BF2403002024BF0200ACBF0200C0
:1029600016A00200ACA102001BA002004AA00200B7
:102970002DE9F341B0B9514B5B88002B00F09580F5
:102980004F4B5048504AC01AC0080E244F4B009479
:1029900000044F4940F00100FEF7EDF8204602B078
:1029A000BDE8F0816AB9454B5B88002B7DD0444B74
:1029B0004448484AC01AC0080E24444B00940004FE
:1029C000E7E7D0F800E0BEF1000F0DD13B4B5B888C
:1029D000002B6CD03A4B3B483F4AC01AC008082431
:1029E0003A4B00940004D4E76BB9344B5B88002B5E
:1029F0005FD0334B3348394AC01AC0080924334BDF
:102A000000940004C5E74568D5F80480B3FBF8F5E9
:102A100008FB15356DB1294B5B88002B49D0284B3D
:102A200028482F4AC01AC0080924284B00940004E3
:102A3000AFE78D070DD0214B5B88002B3BD0204B9F
:102A40002048284AC01AC0081024204B00940004D3
:102A50009FE712F0030F0CD0184B5B885BB3184B49
:102A60001848214AC01AC0081024184B00940004CA
:102A70008FE7C568A9420BD34D1EEC180569AC421F
:102A800006D8DEF80C40A44602B0BDE8F04160472D
:102A90000A4B5B887BB10A4B0A48144AC01AC0082B
:102AA00010240A4B0094000473E70E2476E70824F0
:102AB00074E7092472E7102470E700BF24030020A4
:102AC00024BF0200ACBF020016A00200BEA102009B
:102AD0001BA0020098A0020044A0020057A0020020
:102AE0009EA00200C8A00200E0A0020003A1020014
:102AF000F7B5A0B9374B5B88002B63D0364B37480E
:102B0000374AC01AC0080E24364B009400043649D8
:102B100040F00100FEF72FF8204603B0F0BDD0F8DA
:102B200000C0BCF1000F0DD12A4B5B88002B4BD0AD
:102B3000294B2A482D4AC01AC0080824294B009462
:102B40000004E4E76AB9234B5B88002B3ED0224B9C
:102B50002248274AC01AC0080924224B00940004C6
:102B6000D5E74768D7F800E00EF1FF370F420CD0E9
:102B7000184B5B8863B3184B18481E4AC01AC0082C
:102B80001024184B00940004C1E7C768B9420CD365
:102B900004694D1E0EFB0255A54206D8DCF8104014
:102BA000A44603B0BDE8F04060470A4B5B887BB1A8
:102BB000094B0A48104AC01AC0081024094B009457
:102BC0000004A4E70E24A7E70824A5E70924A3E747
:102BD0001024A1E72403002024BF0200ACBF0200A0
:102BE00016A00200D1A102001BA0020044A0020016
:102BF00057A002002AA1020050A10200014B43602D
:102C000000207047E4A1020008467047002070478A
:102C1000024B1868003818BF01207047CC0B002009
:102C200008B50248FFF73EFC002008BDCC0B002091
:102C300008B510461A4625F01FFA002008BD00000E
:102C40002DE9F043814687B014480E461546984654
:102C5000FFF71FFC0446F0B90746BD4215D10F48E7
:102C6000FFF720FCD9F808305BB102228DF8002074
:102C70000022CDE90126CDE90325CDF81480684670
:102C80009847204607B0BDE8F08306EB073000F018
:102C90004FFC0137E1E71124F3E700BFCC0B002024
:102CA0002DE9F041804686B011480F4616461D4674
:102CB000FFF7EFFB0446C8B9AA083146384600F0D2
:102CC0004FFC0B48FFF7EEFBD8F8083053B1012258
:102CD0008DF800200C9A0592CDE90147CDE90365F6
:102CE00068469847204606B0BDE8F0811124F9E710
:102CF000CC0B00202DE9F84FB0F806A04579D2F8AA
:102D000000B09DF828900AFB05F5043D88460BEBC2
:102D10000301A94203F1040488BFA5EB030BB4FB34
:102D2000FAF607460AFB1644C2F800B04EB9AAEB01
:102D300004055D4528BF5D46BBF1000F04D1BDE829
:102D4000F88F3F68013EF1E7043408EB06003C448D
:102D50002A46B9F1000F0DD02146ABEB050B25F04B
:102D60008BF9DA452E443F6855464FF0000428BFE2
:102D70005D46E1E701462046EFE7FFF796BBF8B571
:102D800046790146721E0546002393422D6803D3FF
:102D90000024A64202D8F8BD0133F6E70F682846A2
:102DA000FFF7BCFB01343946F3E72DE9F843CD1CAE
:102DB000868A0746FFF790FB043E35440446B5FB80
:102DC000F6F5F0B14FF48073EDB28380C680013D1B
:102DD000076081464FF00008A84512D23846FFF739
:102DE0007BFB064648B163790133637108F1010842
:102DF000C9F8000007608146EEE72046FFF7BFFFF5
:102E000034462046BDE8F88301210430FFF729BB92
:102E100010B5012104460430FFF72FFB10F0FF0F1F
:102E200004D12046BDE81040FFF7A9BF10BD1FB573
:102E300003920022009203AAFFF75CFF05B05DF841
:102E400004FB1FB503920122009203AAFFF752FF71
:102E500005B05DF804FB0000064B10B500241C70A3
:102E6000054B1C60BFF35F8F0449054800F06AF909
:102E7000204610BDD80B0020DC0B00201CA2020055
:102E8000D00B002008B50020FFF7CEF8F1EE103A85
:102E900023F09F03E1EE103ABFF35F8F054B402212
:102EA000C3F884210020FFF7C1F820BF40BF20BF36
:102EB00008BD00BF00E100E0026813685268934259
:102EC00091BFD01A80680130801888BFC01A70473F
:102ED0002DE9F041036815461F681E685A6896423E
:102EE00086BF83680133961B8846C268416888BFE5
:102EF0009E1BB542044607FB02110CD86A434046AC
:102F000025F0BAF8A3683D449D4288BF0025236898
:102F10001D60BDE8F08106FB02F73A46404625F009
:102F2000ABF8E2686168AD1B6A4308EB070025F067
:102F3000A3F8ECE7036881681A685B688B4234BFCA
:102F400001330023D31A584258417047F8B504465C
:102F500000200D46FFF768F82046FFF7EBFF10B1A1
:102F6000237C002B3DD12168A6684B684A68B24299
:102F700034BF013200224A6038B12168A0680A6873
:102F8000824234BF013200220A60E2686068511E4A
:102F9000072920D8DFE801F004101F141F1F1F1895
:102FA0002A78C2542046FFF787FF23689A68824236
:102FB00000D29860002415E02A8820F81320F1E759
:102FC0002A6840F82320EDE7D5E9006700EBC3004D
:102FD000C0E90067E6E7294602FB030025F04CF84C
:102FE000E0E704240020FFF721F82046F8BD37B5BC
:102FF00005460191144682B10020FFF715F82846D6
:10300000FFF75AFFA04201990AD322462846FFF74C
:103010005FFF00240020FFF709F8204603B030BD11
:103020000524F7E710B504460020FEF7FDFF2068F1
:103030000C22002125F048F8BDE810400020FEF7E2
:10304000F5BF10B504460020FEF7EEFF2046FFF75F
:1030500033FF04460020FEF7E9FF204610BD8268DA
:103060000023936082681361826853618268D36031
:1030700082685360826813607047F8B505460F4652
:1030800016461C4683B9AB686A68D3E9030302F1AC
:10309000010CC11A61450ED1002737601CB3A86826
:1030A000FFF700FA0020F8BD8068FFF7F2F900286A
:1030B000E9D01120F7E700EA02011A40914238BF37
:1030C000634432682CBFACEB01031B1A9A4294BFD5
:1030D000326033602B680B443B60AA683168D36868
:1030E0000B44D360DEE72046DDE738B584684368EB
:1030F0002569A26801332B449B1A8B420CD31144DF
:10310000A16083689A68DA608068FFF7C8F90028D0
:1031100014BF0020082038BD0420FCE710B58268E9
:1031200013699468E41A8C420AD3194411618368C4
:103130001A695A6180680430FFF7B4F9002010BDA5
:103140000420FCE701600B6843604A68934204BFB7
:1031500000234360704770B5446806460D462068FA
:1031600018B1B3682946984718B923682B602560C1
:1031700070BD2468F3E74368186808B102681A60F4
:1031800070474368186870474368186800B970470B
:10319000884203D102681A60012070470346006824
:1031A000F4E7000038B5074C051E04F1080318BF0A
:1031B0001C4623682BB11A6822605B682846984732
:1031C000F7E738BDE80B002020B9054B01225A7003
:1031D000FFF7E8BF012802D1014A9070F8E7704775
:1031E000E00B002038B5094C23786BB908486360C0
:1031F000A3602361E36000F0D3F9054600F0DCF939
:1032000001232370284638BD8525FBE7E00B00200D
:10321000C931000038B5134CA378054603F0FF0010
:1032200073B115B16B68012098470020FEF7FCFED2
:10323000E3680133E3600020BDE83840FEF7F6BEE6
:10324000FEF7F2FE25B1226913463BB92A602561DB
:10325000E368002BECD100F0C1F9E9E79D42F7D01B
:103260001B68F2E7E00B002038B5134C6378054685
:1032700003F0FF0073B115B16B6800209847002080
:10328000FEF7D2FE6368013363600020BDE838407A
:10329000FEF7CCBEFEF7C8FE25B1A26813463BB9C7
:1032A0002A60A5606368002BECD100F0A9F9E9E77A
:1032B0009D42F7D01B68F2E7E00B002038B5084CC0
:1032C0000020FEF7B1FE6368013B6360656815B9D5
:1032D00000F0A8F96570BDE838400020FEF7A6BEF2
:1032E000E00B002007B58DF807000DF10701064837
:1032F000FFF72CFE0448FFF71DFE08B100F068FC44
:1033000003B05DF804FB00BF0CBF020038B50C4DE4
:103310002B7893B90B4B0C49002808BF184603883B
:10332000284620F8013F00F013FC044618B900F0CD
:103330003DFC01232B70204638BD8524FBE700BFF0
:10334000440C00204DA20200E532000008B500F058
:103350003FFC00F045FC0348FFF764FE024B0022EF
:103360001A7008BD0CBF0200440C002010B50446C2
:103370000248FFF766FE207010BD00BF0CBF0200C0
:1033800007B50A4601460548FFF731FE019000F0F7
:103390000DFC019803B05DF804FB00BF0CBF0200F8
:1033A0001FB503788DF800304368019383688DF86A
:1033B0000830C368054A0393054B684653F821302B
:1033C00052F82110984705B05DF804FB480C002026
:1033D000500C00201FB503788DF80030436801932E
:1033E00083688DF80830C368054A0393054B684627
:1033F00053F8213052F82110984705B05DF804FBCE
:10340000480C0020500C0020F0B5194B90F800C07B
:10341000DFF86CE043F82C20164B16460A6943F897
:103420002C204B7F0EF80C300C4607460FCC89B091
:103430006D460FC594E80F0085E80F003B78CDF886
:1034400010C01EF803304BB1002E0B4A694608BF6E
:103450003246381D01F03EF809B0F0BD002E074A93
:10346000694608BF324607F10C0000F0F3FDF3E7B0
:10347000500C0020480C0020A1330000D533000080
:10348000A4250020074A084B1360084A03F11001E5
:103490001160074A03F120011160064A0120C2F8B9
:1034A00004357047900C0020600C00205C0C00205C
:1034B000580C002000E0004010B5124B044618687C
:1034C000884202D0102224F0D7FD0F4A0023C2F810
:1034D0000031012313604FF08073D2F8001161B105
:1034E0000023C2F80031094B1968A14203D0102211
:1034F000204624F0C1FD012002E0013BEDD1184639
:1035000010BD00BF5C0C002000E00040580C002003
:10351000024B01461022186824F0AEBD900C00202A
:10352000024AD2F80034002BFBD0704700E0014083
:103530000A4908B50223C1F80435BFF36F8FBFF302
:103540004F8FC1F80805FFF7EBFF0023C1F80435E2
:10355000BFF36F8FBFF34F8F08BD00BF00E0014086
:103560000E4B10B50124C3F80445BFF36F8FBFF3B2
:103570004F8F01EB8204401AA14208D1074B002271
:10358000C3F80425BFF36F8FBFF34F8F10BD4318EF
:1035900051F8042B1A60FFF7C3FFEDE700E001408C
:1035A000044A137923B9012110601171184670473C
:1035B00085207047940C0020074B1A68D2075FBF24
:1035C000C02283F8002301221A604FF080430122B9
:1035D000C3F81825704700BF00E100E0074B002248
:1035E0001A6082B01B680193019B4FF08043022256
:1035F000C3F8042301229A6002B07047040100401E
:10360000074B00221A6082B01B680193019B4FF0A8
:1036100080430122C3F804231A6002B0704700BF40
:1036200000010040064B01221A604FF08042D2F8A0
:103630000C3403F00113B3F1011FF8D0704700BF41
:103640000400004007B5134B1A6862B100201860EF
:103650001B680093009B4FF080430122C3F80823AE
:103660000D4B1B6898470D4B1A6882B100221A60F7
:103670001B680193019B4FF080430222C3F808238B
:10368000054B1B68012003B05DF804EB184703B03D
:103690005DF804FB00010040940C00200401004090
:1036A00000F1804000F5C040002382B00360036851
:1036B0000193019B02B0704703681F2B83BF03F087
:1036C0001F03036001484FF0A04070470003005003
:1036D00007B5019001A8FFF7EFFF019B00EB830006
:1036E000D0F8003723F44033C0F80037D0F8003763
:1036F00043EA0141C0F8001703B05DF804FB000085
:10370000054B4FF0FF32072843F8202084BFC01834
:1037100080F85220704700BF9C0C002010B5174C59
:1037200094F8643043BB04F130032A21FF220139AD
:1037300011F0FF0103F8012BF9D1C8B2FFF7E0FF48
:1037400001310C29F9D1062200210D4824F0BCFCDE
:103750000C4BC02283F8062340221A604FF4BE703F
:10376000FFF79EFF084B4FF00042C3F804230123EC
:1037700084F86430002010BD0820FCE79C0C002079
:10378000FA0C002000E100E000600040034B93F8D9
:103790006400003818BF0120704700BF9C0C002057
:1037A000F7B53B4E3318054693F93030002B6CDAF1
:1037B0008B78C3F34003002B0BBF082400240C209C
:1037C0000820844202D1042003B0F0BD56F82470D2
:1037D000013743D1701946F8242080F8304013B9DE
:1037E000331983F852508B785A0717D4D80737D536
:1037F00001A80195FFF760FF019B00EB8300D0F863
:10380000003723F00203C0F800372248EA0805F029
:1038100007070123BB40875C3B4383548B780A78BE
:1038200013F0020328D0A40004F1804404F5C0443E
:103830002D02D4F8103523F44F3323F44073C4F829
:1038400010351204D4F8103505F47C5502F44032DA
:1038500015431D43C4F810550020B5E70134B0E707
:1038600001A84A780195FFF727FF019B03F5E07354
:10387000920040F82320C8E7083C344494F85A509A
:1038800045EA821284F85A20E6E708209CE700BF48
:103890009C0C0020FA0C002073B5224C261805461B
:1038A00096F93020072A1ADD224492F852309B09FB
:1038B000032B0FD1019001A8FFF7FEFE019BD0F86A
:1038C0001015D94001F0010102312846FFF700FF31
:1038D00002B070BD012B0CBF02210321F5E7D3B26A
:1038E000072BF5D8930003F1804303F5C043D3F8C9
:1038F000100540F00100C3F8100502F140008000FF
:1039000080B2FFF7CDFE0029E2D096F9303054F8AE
:103910002330002BDCD0012303FA02F2024BC3F860
:103920000423D5E79C0C00200060004007B50190FF
:1039300001A8FFF7C1FE019BD0F81005D84000F0A8
:10394000010003B05DF804FB2DE9F04F002489B0BD
:10395000CDE90244624D4FF48072012102F18043AF
:1039600003F5C04390B21B68012B06D1D5F8043390
:103970000B4202D0FFF794FE0C430432B2F5907F65
:103980004FEA4101EAD1574B1B68012B0ED14FF48E
:10399000BE70FFF785FE4FF0A04344F00044D3F81B
:1039A00010350293504BD3F81035039314F0FF0FEA
:1039B0001AD04E4F00250126344210D0AB0003F13F
:1039C000804303F5C043D3F81005D3F8101557F81A
:1039D000253023B1C1F30141C0F3052098470135DB
:1039E000082D4FEA4606E7D1002C75DA04AF002314
:1039F00004937B604FF0FF33CDE90633DFF8EC90A2
:103A0000DFF8EC800026354618F9012B531C4AD00C
:103A1000C2F3C2000123D4B202F03F0B02F007024E
:103A200003FA02F208AB191811F8083C13423AD015
:103A300009EB0B03A40993F9303059F823A0BAF12C
:103A4000000F08D1032C2ED117F800C04CEA020C4D
:103A500007F800C001E0032CF6D001A8CDF804B0AF
:103A6000FFF72AFE019B11F8181C03F5E07C1142B8
:103A700050F82C00C0F3014005D0022813D1032CCC
:103A80000BD1214604E003280DD1032C05D10221DE
:103A90005846FFF71DFE0135EDB2BAF1000F02D016
:103AA00021465846D0470136042EADD1A5B14FF07E
:103AB000A0430299D3F8102503F540739142D3F83F
:103AC000103502D10399994206D002920393049AC9
:103AD000059B0692079393E709B0BDE8F08F00BFFE
:103AE000006000407C610040000300509C0C0020FE
:103AF000F60C0020014B1B68184700BF040D002086
:103B000038B50B4B98420C4601D0002038BD002040
:103B1000FEF78AFA074B1D7915B901221C601A714C
:103B20000020FEF783FA002DEFD01120EEE700BF52
:103B300000200040040D0020034B984201BF034BBE
:103B400000221A601A71704700200040040D002006
:103B500010B5124C2278FAB9114B1960037813F0A2
:103B6000010F104B1EBFD3F8042542F00102C3F829
:103B70000425D3F8002222F00102C3F80022437882
:103B8000094A5B01DBB282F80D334FF40053136036
:103B900001232370002010BD8520FCE7100D0020BC
:103BA0000C0D002000D0004000E100E0064B002298
:103BB0001A6082B01B680193019B044B0122C3F879
:103BC00004231A6002B0704700D1004000D00040CA
:103BD000024A0123C2F808335360704700D0004006
:103BE000064A0123C2F808335360054B4FF40052D4
:103BF000C3F88020034B00221A70704700D00040A9
:103C000000E100E0100D0020074B00221A6082B096
:103C10001B680193019B054BD3F80805044B1B68F7
:103C2000C0B202B0184700BF00D1004000D0004031
:103C30000C0D0020F7B50679324D0C2474432F1972
:103C40003B7A002B5BD12A514A687A609C461A461F
:103C500047790368D4B2A74247D8CA782A4F1C0BC9
:103C600043F30733002BAEBF03F16043274B04F04F
:103C70000F044FEA4212D2B2AABF03F561431A55AC
:103C800083F80023036843F3073464090122C3F374
:103C9000043302FA03F347F8243007684B78D7F867
:103CA000044503F0030324F003042343C7F8043559
:103CB00007688B78D7F8084503F0030324F0030462
:103CC0002343C7F8083504680B78D4F8100503F0CF
:103CD0000F0320F00F010B43C4F810350C2303FB36
:103CE000065500202A7203B0F0BDA40004F5A074AC
:103CF000013243F804C01B590193019BA8E7082037
:103D0000F1E700BF140D002000E100E014ED00E039
:103D1000036801221A600379034A0C2101FB032383
:103D200002221A72704700BF140D00200368044974
:103D300001221A6103790C2000FB03131A727047E9
:103D4000140D0020026838B542F3073301215B09E6
:103D5000C2F3043201FA02F220330C4941F8232065
:103D600003680025D3F80022C3F8005203684FF01F
:103D7000FF320446C3F80823FFF7D8FF2379044A2B
:103D80000C2101FB03231D7238BD00BF00E100E0E0
:103D9000140D00200379044A0C2101FB0323187A37
:103DA000831E584258417047140D002010B58B00F7
:103DB00040330268DBB20124D45001F5A8710368D6
:103DC00053F8210010BD73B54FF4803405688C4062
:103DD0008BB18B0003F5A0730026EE50EB580193D6
:103DE000019B0368C3F80443036801F5A87143F815
:103DF000212002B070BDC5F80843F5E7F0B40768AC
:103E000040F20116D7F800528E4025EA0605C7F8A1
:103E100000520468D4F800522B43C4F800329DF8D5
:103E20001030F0BCFFF7CFBF2DE9F341104C114F1C
:103E3000114E00254FF48038236883B1D7F804333E
:103E400008FA05F21A420AD000232360236801937E
:103E500004F5C040019B80B2D6E900319847013596
:103E6000062D04F10404E7D102B0BDE8F08100BFE3
:103E700040A1014000A00140140D00200023435048
:103E800082B043580193019B02B070470A4610B5B7
:103E90004FF48E71FFF7F2FF136A9168C95C136AE1
:103EA00001331362C0F81C1510BD10B58B690A46AA
:103EB0004FF4847123B9FFF7E1FFD0F8183510BD36
:103EC000FFF7DCFF536AD168D0F81805C854536A6D
:103ED00001335362F3E700001FB501238DF8003072
:103EE000044BCDE90110D3E900126846904705B0B4
:103EF0005DF804FB200D002030B54C48D0F80433A9
:103F000013F4007F85B005464DD0D0F82431002B46
:103F100049D04FF49271FFF7B1FF4FF40173C0F82D
:103F20000833434B93F829200AB9012242603F49E4
:103F300002228DF80020D1F88024C1F88024039259
:103F40009A690292DA6801920022C3E90622684661
:103F5000D3E9001290473548D0F81C315BB13449A1
:103F60004A690B6A9A420A464BD991F82830002BCD
:103F700047D1FFF78BFF2D48D0F844318BB14FF478
:103F8000A271FFF77BFF2A4B93F829200AB1012287
:103F900002609A692AB10022586AD9689A61FFF7CB
:103FA0009BFF05B030BDD5F804335B07D3D5D5F8FA
:103FB0000831002BCFD01E4C1C482146FFF775FF5F
:103FC000636AA2699A422346C5D1E26952B1236964
:103FD000E168E3600023606AA261E3616362FFF766
:103FE0007BFFB8E794F829200AB901226A600F4ADA
:103FF0004FF40171C2F808130022586AD9689A6117
:10400000EDE70A484FF48E71FFF738FF5369002B34
:10401000B1D051690291002391688DF8003001916F
:1040200053616846D2E900139847A4E70020004096
:10403000200D00201F2886BF00F01F00044B4FF00A
:10404000A04300F5E070022243F82020704700BF33
:10405000000300502DE9F8436D4B067991462C2260
:1040600002FB0632054692F82A200C469846002AA2
:1040700040F0C98067490068FFF742FD0746002805
:1040800040F0C3802368591C19D01F2B4FF0010248
:104090008ABF61494FF0A04103F01F0302FA03F306
:1040A000C1F8083523681F2B86BF03F01F035A4A47
:1040B0004FF0A04203F5E073032142F82310636838
:1040C0005A1C0BD01F2B86BF03F01F03524A4FF020
:1040D000A04203F5E073002142F823102B68A26987
:1040E000C3F82425217D637D2A680B43C2F86C3513
:1040F000D4E900122B68C3F81425C3F80C15237DEE
:10410000012B32D1A168481C0BD01F2986BF01F0BA
:104110001F01414B4FF0A04301F5E071002243F82D
:104120002120E3685A1C19D01F2B4FF001028ABFCF
:1041300039494FF0A04103F01F0302FA03F3C1F81D
:104140000835E3681F2B86BF03F01F03324A4FF088
:10415000A04203F5E073032142F82310D4E90212D0
:104160002B68C3F80825C3F810152C23734308EBFC
:104170000302C2F80490226948F80320B9F1000F45
:104180002ED02868247F4FF48E71FFF777FE4FF40E
:10419000A2712868FFF772FE2B68204AC3F8042337
:1041A0002A68110B42F30732002AAEBF02F16042C7
:1041B0001B4A01F00F014FEA4413DBB2AABF02F51C
:1041C0006142535482F800332B68012143F30732D4
:1041D000C3F3043301FA03F35209124941F82230C0
:1041E0002B680422C3F800252C2303FB068300223E
:1041F000C3E9062283F829205A61012283F82A2084
:104200003846BDE8F8830827FAE71127F8E700BF2A
:10421000200D0020F93E0000000300508000020045
:1042200014ED00E000E100E02DE9F04103680479BD
:10423000274D0022C3F800252C2303FB045301461D
:104240005B6883B10368234AC3F80823026842F31A
:10425000073301205B09C2F3043200FA02F2203373
:104260001D4840F823200B684FF0FF32D3F80C05AF
:10427000D3F81485D3F80865D3F81075C3F814255E
:10428000C3F80C250B689042C3F80825C3F8102525
:1042900001D0FFF7CFFEB8F1FF3F02D04046FFF755
:1042A000C9FE7A1C02D03846FFF7C4FE731C02D048
:1042B0003046FFF7BFFE0868FFF73EFC2C2303FBE8
:1042C0000454002384F82A306360BDE8F08100BF05
:1042D000200D00208402020000E100E02DE9F047FB
:1042E000214F90F804904FF02C0808FB0974054604
:1042F0006669002E35D16261A160266284F828606B
:1043000000684FF48E71FFF7B9FD2B6801229A60A7
:1043100028682146FFF7BAFD6368A0468BB9286874
:10432000D4F814A0236A9A4511D82A68D2F81C310F
:10433000002BFBD00123D3602C2303FB0973002245
:104340005A613046BDE8F08794F828303BB9D0F880
:104350001C31002BF8D04146FFF798FDE2E70F260D
:10436000EAE71126EDE700BF200D002000234350AF
:1043700082B043580193019B02B070471FB50123DF
:104380008DF80030044BCDE90110D3E900126846E6
:10439000904705B05DF804FB4C0D00201F2886BF38
:1043A00000F01F00044B4FF0A04300F5E070022224
:1043B00043F82020704700BF000300507FB5434AF8
:1043C000D2F82461002E60D010464FF49271FFF7AE
:1043D000CDFF02238DF80030D2F88034C2F880344B
:1043E0000393D2F83C350293394BDA6801920022EC
:1043F000C3E906226846D3E9001290473348D0F853
:10440000443173B14FF4A271FFF7B0FF304B9A699A
:104410003AB10022C3E90622D968D0F83C05FFF77B
:10442000ADFF2A48D0F82031ABB14FF49071FFF7BF
:104430009DFF0123C360264B5A6962B1D0F84C1529
:104440000291002299688DF8002001915A61684616
:10445000D3E9001290471D48D0F858319BB14FF472
:10446000AC71FFF783FF1A4B5A6962B1D0F84C1553
:104470000291002299688DF8002001915A616846E6
:10448000D3E90012904704B070BDD2F81031002B70
:10449000B4D04FF488711046FFF768FF0C4BD2F888
:1044A0003C0599698842A9D1DC69D96864B1D2F820
:1044B000005225F02005C2F800521A699C61DA60AA
:1044C000DE61FFF75BFF99E79C61FAE7002000409F
:1044D0004C0D00202DE9F843734B067991462422B8
:1044E00002FB0632054692F820200C469846002A28
:1044F00040F0D6806D490068FFF702FB07460028B0
:1045000040F0D0802368591C19D01F2B4FF00102B6
:104510008ABF67494FF0A04103F01F0302FA03F37B
:10452000C1F8083523681F2B86BF03F01F03604ABC
:104530004FF0A04203F5E073032142F823106368B3
:104540005A1C0BD01F2B86BF03F01F03584A4FF095
:10455000A04203F5E073002142F823102B68A26902
:10456000C3F82425217D637D2A680B43C2F86C358E
:10457000D4E900212B68C3F80C25C3F81415237D5A
:10458000012B32D1A168481C0BD01F2986BF01F036
:104590001F01474B4FF0A04301F5E071002243F8A3
:1045A0002120E3685A1C19D01F2B4FF001028ABF4B
:1045B0003F494FF0A04103F01F0302FA03F3C1F893
:1045C0000835E3681F2B86BF03F01F03384A4FF0FE
:1045D000A04203F5E073032142F82310D4E902124C
:1045E0002B68C3F80825C3F810152423734308EB80
:1045F0000302C2F80490226948F80320B9F1000FC1
:104600003DD02868227F4FF48871FFF7AFFE2868FD
:104610004FF49071FFF7AAFE28684FF49271FFF7EC
:10462000A5FE28684FF4A271FFF7A0FE4FF4AC710D
:104630002868FFF79BFE2B681E49C3F804132B68FC
:10464000190B43F30733002BAEBF03F160431A4B42
:1046500001F00F014FEA4212D2B2AABF03F5614343
:104660005A5483F800232B68012143F30732C3F324
:10467000043301FA03F35209104941F822302B6840
:104680000822C3F80025242303FB06830022C3E984
:1046900006225A61012283F820203846BDE8F883BB
:1046A0000827FAE71127F8E74C0D0020BD4300006A
:1046B000000300501003420014ED00E000E100E0B0
:1046C0002DE9F041324E0579242303FB05630446AE
:1046D0005B6883B103682F4AC3F80823026842F37A
:1046E000073301215B09C2F3043201FA02F22033DD
:1046F000294941F823202268D2F8003223F0200310
:10470000C2F80032236801225A6020684FF4AC716D
:10471000FFF72CFE2368DA602368D3F85821002ABB
:10472000FBD00022C3F8002523684FF0FF32D3F8F6
:104730000C05D3F81485D3F80815D3F81075C3F811
:104740000C25C3F8142523689042C3F80825C3F844
:10475000102501D0FFF722FEB8F1FF3F02D04046FE
:10476000FFF71CFE7A1C02D03846FFF717FE4B1CE1
:1047700002D00846FFF712FE2068FFF7DDF9242378
:1047800003FB0565002385F820306B60BDE8F081F0
:104790004C0D00201003420000E100E001F06043F6
:1047A000B3F1005F2DE9F04105463BD11F4B07797E
:1047B000242606FB073698467469002C34D17261B2
:1047C000B16000684FF49071FFF7D0FD4FF4AC7109
:1047D0002868FFF7CBFD2B687269B168C3F84415F0
:1047E000C3F848252B6801229A607368BBB92B680F
:1047F000D3F82021D3F858411AB9002CF8D00F244F
:1048000008E0002CFBD10122DA602A68D2F8583186
:10481000002BFBD0242303FB078700237B6120466A
:10482000BDE8F0811024FAE71124F8E74C0D0020D0
:104830000220FCF7DBBB00002DE9F04780460D4667
:10484000FCF702FC0328044610D8012D10D0022DDD
:1048500030D05DB91A48FDF7F7FA1A4B04EB440261
:1048600013449E78184B1B5DB34219D0BDE8F08706
:10487000144D00EB4002A918AE5C4A78470052B1D3
:10488000DFF84C900E484A464FF48041FDF7C3FADA
:1048900008B989F800803B192B449A780A4B1A55BD
:1048A000002EE3D0094B1B68002BDFD03046BDE85B
:1048B000F047184700EB4004024804446678EFE7ED
:1048C00090000020720D00208D0D0020880D00202A
:1048D000700D002000780221FFF7AEBF08B5094B2C
:1048E0001B7853B10020FCF74FFB0120FCF74CFB79
:1048F000BDE808400320FCF747BBBDE80840FCF7D3
:1049000057BB00BF710D0020F8B57B4C23780546DE
:104910001BB100232370FFF7E1FF172D00F2888001
:10492000DFE805F00C17174354657680888D888D75
:10493000959A9A9A9A9AC4C9D1D9E4E4FFF7CEFF1E
:104940006E48FDF781FA6E4B002204461A7020462D
:10495000F8BD0020FCF7F0FAF8B10020FCF714FBDA
:10496000022D0CBF4FF4E1614FF47A61644B1D706E
:104970004FF400404FF47A740025E0FB01454FF4FA
:10498000FA6200232046294624F062FE00220146F6
:10499000BDE8F8405948FDF73EBAFCF7E1FA022DB0
:1049A0000CBFC8214FF4C871E0E70020FCF7C4FA3F
:1049B00040B10020FCF7E8FA4FF44871504B032255
:1049C0001A70D5E7FCF7CCFAC821F7E70020FCF70E
:1049D000B3FA38B10020FCF7D7FA4FF47A61484BAC
:1049E0000422EDE7FCF7BCFA4FF4C871F7E70020AA
:1049F000FCF7A2FA48B10020FCF7C6FA404B0522AA
:104A00001A7040F6CD410022C2E7FCF7A9FAF5E79B
:104A10000020FCF7EBFA3A4B06221A70002240F213
:104A20006661B5E70020FCF79BFA354B07221A7048
:104A300000248CE701202070FCF7D8FAEEE7012073
:104A40002070FCF7D3FA00224FF40051A0E7FCF7E6
:104A5000BEFA2B4B0C22EAE72A482B4EFDF7F4F95D
:104A6000D5F1110504461CD0D8B9012D13D0C823A7
:104A70005D434FF400474FF47A7000214FF4FA621F
:104A80000023C7FB050124F0E3FD224601461D4833
:104A9000FDF7C1F904460220FCF762FA01233370E6
:104AA00055E70220FCF770FA0023F8E7FFF716FF3E
:104AB000134B1222BBE7FFF711FF0020FCF750FA5F
:104AC0000F4B1322B3E7FFF709FF0120FCF748FA69
:104AD0000B4B1422ABE7FFF701FF0020FCF740FA75
:104AE0000120FCF73DFA064B1522A0E7FCF76FFA10
:104AF000034B1D709CE700BF840D0020B800002010
:104B00008C0D002068000020710D0020044B1B68F4
:104B1000DB0703D5034B1878FFF7F6BE704700BFDD
:104B2000800D00208C0D0020032801D8FCF778BAF6
:104B30000020704738B51C4B18601C4B10F0020465
:104B4000054619601AD01A4B1A480E221A700F2205
:104B5000DA7010229A7111225A72042140F2333213
:104B6000FDF726F8044648B9FDF778F8044628B959
:104B70000146114A1148FDF743F90446EB0711D5E8
:104B80000120FCF773FA6CB921460D4A0D48FDF778
:104B900037F9044630B9BDE838400B4A0B480121CB
:104BA000FDF72EB9204638BD800D0020880D00206D
:104BB000720D0020C4A20200D5480000E8A2020045
:104BC0000D4B0000ECA2020031480000E4A20200FC
:104BD00038B50C21044605F099FB042201214272EC
:104BE000C272027141710A4A02214FF0FF33017211
:104BF0008171002503218172037043708370C3703B
:104C0000C571538020460349BDE8384012F0F8BF13
:104C100044210020194C00002DE9FF41064605F013
:104C200023FB05461921304605F0A1FC6B78002BCB
:104C300068D12B79002B65D0374C62884FF6FF7313
:104C40009A425FD1B0F80110344F61808AB27988FE
:104C50006B792370022909D931493248401AC008BA
:104C60000004314940F00300FBF77BFF00222F488E
:104C7000FF2109F0F5FD80464242F0B17B889BB1EF
:104C800010460392FCF730FA264D039A0346244857
:104C90002D1AF721ED082D0401912549009145F0C9
:104CA00001002449FBF773FFFBF7CEFD0028FBD181
:104CB000C8F59C402030FCF7E7FF0320FCF750F9D3
:104CC00005F01FFA0621054605F051FC00238380FC
:104CD0006388438003801849284612F0A5FEFF2808
:104CE00010D17B88012B0AD90D480E4B62881349DD
:104CF0001B1ADB081B0443F00200FBF729FF2846C0
:104D000005F056FA2EB1304604B0BDE8F04105F08A
:104D10004FBA04B0BDE8F08144210020FC0200201D
:104D200024BF02005CBF0200F0A20200CD4D0000D3
:104D30002AA3020013A30200414D00003AA302007F
:104D400070B588B0054605F08FFA4278194E12BB4F
:104D5000194C811C201D09F031F9221D112103A8D5
:104D600000F0CAFD7388022B10D96288019203A853
:104D7000FBF730FD114C019A114903461148241AE2
:104D8000E408240444F00300FBF7EBFE284605F09A
:104D90000FFA08B070BD7388012BF7D90948074B8B
:104DA00009491B1ADB081B0443F00200FBF7D0FE85
:104DB000ECE700BFFC020020442100205CBF0200A1
:104DC00072A3020024BF0200A2A302007FB5044622
:104DD000002862D0444D6B88022B09D94348444BCC
:104DE00044491B1ADB081B0443F00300FBF7ACFE2D
:104DF00082224148214609F013FD06464242F8B19D
:104E00006B88A3B110460392FCF76EF9384C039AF5
:104E100003463648241A4FF49571E408240401919E
:104E20003649009144F001003549FBF7B0FEFBF72D
:104E30000BFD0028FBD1C6F59C402030FCF724FF79
:104E400040F245122F48002109F0EAFC0646424292
:104E5000002847D06B88A3B110460392FCF744F9B1
:104E6000234C039A03462148241A4FF49671E40810
:104E7000240401912149009144F001002049FBF7ED
:104E800086FEFBF7E1FC0028FBD1C6F59C402030F4
:104E900004B0BDE87040FCF7F7BE1A4805F059F9B8
:104EA00005464242F0B1104B5B88A3B11046039215
:104EB000FCF71AF90E4C039A03460C48241A40F2E8
:104EC0003111E408240401910C49009144F00100DF
:104ED0000B49FBF75CFEFBF7B7FC0028FBD1C5F5DF
:104EE0009C40D4E704B070BDFC02002024BF020047
:104EF0005CBF0200D7A30200D14B00002AA302002E
:104F000013A30200CD4D000008B505F0ADF9104B1C
:104F100042785B886AB9022B19D90E4B0E480F49AB
:104F2000C01AC0080004BDE8084040F00300FBF7C9
:104F30000BBE022B0BD9074B07480949C01AC00802
:104F40000004BDE8084040F00300FBF701BE08BDC7
:104F5000FC02002024BF02005CBF0200F9A3020093
:104F600001A4020070B5334E86B0044600F0A6FFDF
:104F700072884FF6FF739A424AD00E2C48D00F2CFD
:104F800048D105F0BEF8054604A8FCF70FF9182132
:104F9000284605F0ECFA08220446311D23F06CF88F
:104FA0003378237240F20243638103230822237380
:104FB00004A904F10D0023F05FF8012363757388E1
:104FC0001D49E382284610F06DFA05464242F8B1C9
:104FD0001A4B5B889BB110460392FCF785F8184C7E
:104FE000039A03461748241AA821E40824040191CF
:104FF0001549009144F001001449FBF7C8FDFBF787
:1050000023FC0028FBD1C5F59C402030FCF73CFE7A
:1050100006B070BD094B5B88022BF9D90948084BD3
:105020000B491B1ADB081B04224643F00300FBF765
:105030008FFDEDE744210020094F0000FC02002015
:105040005CBF020024BF02002AA3020013A30200D7
:105050002CA40200F0B587B0002305A904460593EF
:105060000FF00EFC0546204605F002FB063D074604
:105070000221204600F006FF012D204600F2848028
:1050800000F044FC0646424200B3554B5B88A3B196
:1050900010460392FCF728F8524D039A03465248F3
:1050A0002D1A4FF4C371ED082D0401914F49009161
:1050B00045F001004E49FBF76AFDFBF7C5FB0028F0
:1050C000FBD1C6F59C402030FCF7DEFD002F40F000
:1050D0008180484B5A884FF6FF739A427AD18222D8
:1050E0004548214609F09CFB0546424200B33C4B33
:1050F0005B88A3B110460392FBF7F6FF394C039A85
:1051000003463948241A40F28D11E4082404019121
:105110003649009144F001003549FBF738FDFBF7B3
:1051200093FB0028FBD1C5F59C402030FCF7ACFD7B
:1051300040F245123148002109F072FB0546424217
:1051400000B3274B5B88A3B110460392FBF7CCFF5B
:10515000244C039A03462448241A40F28F11E40891
:10516000240401912149009144F001002049FBF7FA
:105170000EFDFBF769FB0028FBD1C5F59C402030F4
:10518000FCF782FD07B0F0BD00F0C0FB06464242CE
:1051900000B3134B5B88A3B110460392FBF7A4FF47
:1051A000104D039A034610482D1A40F29711ED084E
:1051B0002D0401910D49009145F001000C49FBF7C8
:1051C000E6FCFBF741FB0028FBD1C6F59C402030F4
:1051D000FCF75AFD002CD5D0204604F0E9FFD1E7BA
:1051E000FC0200205CBF020024BF02002AA30200D0
:1051F00013A3020044210020D14B0000CD4D00003C
:1052000030B587B0FCF7CAFD08B1FCF73DFD4FF49F
:1052100080410020FBF732FA08B1FCF735FDFBF7BF
:105220004BF936490320FFF785FC08B1FCF72CFD4C
:10523000FBF7BEFE324B00241C70324B1C80324BFD
:105240001C7005F0B1FE05F0B1FE04A8FBF7AEFF3F
:1052500004A809F00FFE4FF4803009F02BFE204621
:1052600000F0EEFA062008F0A5FDC32008F0A8FD26
:105270000220FFF759FC80F00100C0B209F0F2FDF6
:1052800001F02CFB437B0BB900F062FE1F4C0522A2
:105290000021204622F018FF4FF6FF731C48638060
:1052A00000F07EFF09F010FE0546424200B3194BA4
:1052B0005B88A3B110460392FBF716FF164C039AC6
:1052C00003461648241A4FF4E671E40824040191B9
:1052D0001349009144F001001249FBF758FCFBF719
:1052E000B3FA0028FBD1C5F59C402030FCF7CCFC7C
:1052F00009F0ECFDFBF7A8FAFAE700BF654F0000E4
:10530000D9010020DA010020DC0100204421002026
:105310004B010020FC0200205CBF020024BF020001
:105320002AA3020013A30200054B1B680D2B01BF2B
:10533000044B1868B0FA80F0400918BF002070478D
:10534000300100103401001008B5FFF7EDFF40B147
:105350004FF080430022C3F80C21C3F81021C3F89A
:105360003825FFF7E1FF002846D04FF080524D4B23
:10537000D2F80414C3F82015D2F80814C3F8241581
:10538000D2F80C14C3F82815D2F81014C3F82C1551
:10539000D2F81414C3F83015D2F81814C3F8341521
:1053A000D2F81C14C3F84015D2F82014C3F84415E1
:1053B000D2F82414C3F84815D2F82814C3F84C15B1
:1053C000D2F82C14C3F85015D2F83014C3F8541581
:1053D000D2F83414C3F86015D2F83814C3F8641541
:1053E000D2F83C14C3F86815D2F84014C3F86C1511
:1053F000D2F84424C3F87025FFF796FF48B14FF068
:105400008043D3F80024D20744BF6FF00102C3F8F1
:105410000024254AD2F8883043F47003C2F888305B
:10542000BFF34F8FBFF36F8F4FF01023D3F80022DD
:10543000002A03DBD3F80432002B2FDA1B4B0122A6
:10544000C3F80425D3F80024002AFBD04FF0102223
:105450001221C2F80012D3F80024002AFBD04FF02A
:1054600010231222C3F80422104B1A46D3F800145A
:105470000029FBD00021C3F80415D2F80034002B1A
:10548000FBD0BFF34F8F0849094BCA6802F4E062B2
:105490001343CB60BFF34F8F00BFFDE7054B064AB8
:1054A0001A6008BD00C0004000ED00E000E00140CF
:1054B0000400FA05D40100200090D003022011F06E
:1054C00015B8000030B52C4D2C4C2B78207085B0D1
:1054D000EBB12B480022FF2109F0C2F9294B00282B
:1054E00044D11870284B28705B88022B0FD9274BAA
:1054F00027482178274AC01AC008274B00040029F2
:1055000018BF1A4640F003002449FBF721FB24484A
:105510000022FF2109F0A4F910F11C0F054628D044
:10552000424230B3184B5B88A3B110460392FBF79D
:10553000DBFD174C039A03461448241A40F24D3100
:10554000E408240401911749009144F00100164930
:10555000FBF71DFBFBF778F90028FBD1C5F59C4054
:10556000203005B0BDE83040FCF78EBB01221A7038
:10557000CDE705B030BD00BF5121002056210020ED
:10558000BD54000053210020FC02002024BF020073
:105590005CBF02004DA40200D6A3020052A4020088
:1055A000C554000083A4020013A302007FB5344B4E
:1055B0001B78002B61D033490B78002B5DD0324B28
:1055C0001A78D2B100221A70304B0A705B88022B15
:1055D00053D92F4B2F48304AC01A304B1978304BD3
:1055E000C008002918BF1A4600042E4940F00300E5
:1055F00004B0BDE87040FBF7ABBA2B4D2B78002B05
:105600003BD12A492A480B7801229A40B2F5617FA2
:10561000DCBF01330B70274BC8BF4FF461725A4394
:1056200000214FF47053B2FBF3F209F0F9F806468B
:10563000424200B3154B5B88A3B110460392FBF7BF
:1056400053FD144C039A03461148241A40F2ED21ED
:10565000E408240401911849009144F0010017491D
:10566000FBF795FAFBF7F0F80028FBD1C6F59C4054
:105670002030FCF709FB01232B7004B070BD00BF84
:10568000552100205121002053210020FC02002040
:1056900024BF02005CBF0200C2A402005621002009
:1056A000D6A3020052A40200502100205421002061
:1056B000BD54000040420F0083A4020013A3020067
:1056C0007FB50EF0CBFE002851D12A4B1B78002B62
:1056D0004DD0294A137803F0FF01002B47D1274B07
:1056E000274819700378002B41D10121017025480A
:1056F00013700370244A25481370037043F2DC22B0
:105700002348244E09F08CF805464242F8B17388CC
:10571000A3B110460392FBF7E7FC1F4C039A034624
:105720001E48241A40F21331E408240401911C4954
:10573000009144F001001B49FBF729FAFBF784F8BC
:105740000028FBD1C5F59C402030FCF79DFA7388FA
:10575000022B0CD9114B10481349C01AC008000481
:1057600040F0030004B0BDE87040FBF7EDB904B0B1
:1057700070BD00BF5521002056210020502100207F
:1057800051210020532100205221002054210020CB
:10579000C5540000FC0200205CBF020024BF0200D0
:1057A00083A4020013A30200C7A4020030B585B091
:1057B0000EF054FE044670BB194B1A785AB3187099
:1057C000FFF77EFF41221748214609F029F80546D8
:1057D000424200B3144B5B88A3B110460392FBF71F
:1057E00083FC124C039A03461148241A40F25F319D
:1057F000E408240401910F49009144F001000E498E
:10580000FBF7C5F9FBF720F80028FBD1C5F59C4054
:105810002030FCF739FA094B00221A7005B030BD70
:1058200056210020AD550000FC0200205CBF0200A4
:1058300024BF020083A4020013A30200522100200F
:1058400007B500BB124B0C22C3F818270A22D3F865
:105850001015013AC1F380110191F8D1019B73B980
:105860000C4B5B88022B09D90B480C4B0C49C01A16
:10587000C008000440F00300FBF766F90120044B68
:105880000222C3F8182703B05DF804EB09F000BB4F
:1058900000030050FC0200205CBF020024BF020095
:1058A000E9A402002DE9F84F1C469DF82830074670
:1058B000884691466BB1661E002BDFF838B014BFE6
:1058C0004FF0FF3A4FF0010A002524B92846BDE801
:1058D000F88F1E46F0E719F806305A46A8EB050186
:1058E000781922F03FFF0028F1DB013C05445644C3
:1058F000E4B2EAE7049A020007B501230093082303
:10590000FFF7D0FF03B05DF804FB00002DE9F04184
:105910008CB004A94FF000080446CDF810800EF0BA
:10592000AFFF0746204604F0A3FE0446054609F0F3
:10593000C5FA0646132F00F27782DFE817F01B0046
:1059400076004A02D90175028D00D8001E01970128
:10595000680275021B00F301750275021B02140038
:10596000580275021E02AC4EB6F8028074B1B8F14E
:10597000020F01D801246DE0A848A94BA949C01A1B
:10598000C0080004224640F00300ADE00D2221468D
:1059900008A8049F079422F097FBB8F1020F09D9D9
:1059A0009E489F4BA049C01AC008000440F0030065
:1059B000FBF7CAF807F11002112107A8FFF79CFFB7
:1059C000002803DA994907A822F000FF7388022B08
:1059D0000DD907A8FAF7FEFE904B9549024690486C
:1059E0001B1ADB081B0443F00300FBF7B1F8F8684F
:1059F00009F026FAF86809F02FFA7388022B12D9F9
:105A0000874B8648FA688B49C01AC008000440F0EA
:105A100003000390FBF79CF87388022B03D9864997
:105A20000398FBF791F8012446E0844B01221A7099
:105A3000794B5B88022B09D97848794B8049C01A89
:105A4000C008000440F00300FBF77EF8002010F0CF
:105A50004DFD044600252FE06F4F7A88022A09D9B0
:105A60006E486F4B7749C01AC008000440F003002D
:105A7000FBF76AF87B885CBB76B1022B09D96748D3
:105A8000674B7149C01AC008000440F00300FBF7DF
:105A90005BF8FFF715FE6DE7022B09D95F48604BF5
:105AA0006A49C01AC008000440F00300FBF74CF834
:105AB000042010F01BFD04460020FFF777FD1DB900
:105AC000651E18BF4FF0FF3528460CB0BDE8F081C9
:105AD000002B3FF44FAF5148514B5D49C01AC008ED
