:1000000000000420750300005D0300005F03000092
:1000100061030000630300006503000000000000AE
:100020000000000000000000000000006703000066
:1000300069030000000000006B0300006D03000076
:1000400011370000A1750200C93B00006F030000DA
:100050006F0300006F0300001D3A00006F030000F3
:100060006F0300006F0300006F0300006F030000C8
:100070006F030000DD3C00006F0300006F03000011
:100080006F0300008D2300006F0300006F0300006A
:100090006F0300006F0300006F0300006F03000098
:1000A0006F0300006F030000E13E00006F030000DB
:1000B0006F0300006F03000000000000000000005C
:1000C0006F0300006F0300006F0300006F03000068
:1000D000359E02006F0300006F0300006F030000F5
:1000E0006F0300006F0300006F03000000000000BA
:1000F000000000006F030000000000006F0300001C
:1001000000000000000000000000000000000000EF
:1001100000000000000000000000000000000000DF
:1001200000000000000000000000000000000000CF
:1001300000000000000000000000000000000000BF
:1001400000000000000000000000000000000000AF
:10015000000000000000000000000000000000009F
:10016000000000000000000000000000000000008F
:10017000000000000000000000000000000000007F
:10018000000000000000000000000000000000006F
:10019000000000000000000000000000000000005F
:1001A000000000000000000000000000000000004F
:1001B000000000000000000000000000000000003F
:1001C000000000000000000000000000000000002F
:1001D000000000000000000000000000000000001F
:1001E000000000000000000000000000000000000F
:1001F00000000000000000000000000000000000FF
:10020000354936480A1A02D0072291438D463449AF
:1002100034480A1A06D00722914381F30988022242
:1002200082F3148830483149314A00F044F83148AB
:100230003149324A00F03FF831483249324A00F041
:100240003AF832483249334A00F035F832483349F7
:10025000334A00F030F833483349344A00F02BF881
:1002600033483449344A00F026F8344834490022EF
:1002700000F02CF833483449002200F027F83348C6
:100280003349091A082902DB002202604160314A21
:1002900090471F481F49884205D00268043003B4C4
:1002A000904703BCF7E700208646EC46002000217B
:1002B000294A9047FEE7884207D0521A05D00378B2
:1002C00001300B700131013AF9D17047884202D0F8
:1002D00002700130FAE770470000042000E00320BC
:1002E000000004200000042090CB0200CC0000207D
:1002F000B4030020D0030000D0030000DAA3020002
:1003000090CB0200CC000020CC000020A0A5020071
:10031000A0A50200A0A50200A0A50200A0A50200C1
:10032000A0A50200A0A50200A0A502008FCB02009C
:1003300078CE0200B4030020B4030020B4030020F0
:10034000D63C0020D83C0020D83C0020D83C0020DF
:10035000D85C00209D03000005540000FEE7FEE786
:10036000FEE7FEE7FEE7FEE7FEE7FEE7FEE7FEE765
:1003700000F002B8FFF7FCBF0F484FF007018843B9
:1003800085460E4880470E48016841F470010160BF
:10039000BFF34F8FBFF36F8FFFF732BF09480A4992
:1003A0000A4A884207D0521A05D0037801300B70F0
:1003B0000131013AF9D17047000004204D55000089
:1003C00088ED00E0D4A4020000000020CC00002052
:1003D000F0B595B01D46164608460C4602F080FD65
:1003E0001A9B0D93CDE9086500252B46082205A927
:1003F00020460A958DF82C500C9502F08EFD079B37
:100400000293069B03939DF814308DF8115003F06E
:100410000302012A1DD1BDF81420059DC3F3C203B8
:10042000C2F383168DF81030B20008230EA92046BF
:1004300002F073FDC5F3952508AB0093324602AB7D
:100440000EA9284600F020FD204602F04DFD15B013
:10045000F0BD022AF8D1BDF81650C3F3C203C5F3AC
:1004600089158DF810300827082D2E4628BF08263C
:100470003B4632460EA9204602F04FFDAD1B08ABAD
:1004800002AA31460EA8374400F062FD002DEBD1E0
:10049000DAE70000014B01221A707047F5030020D3
:1004A0007047000070B5124D06460FCD88B06C46FF
:1004B0000FC495E80F00002E84E80F004FF0FF33C3
:1004C0004FF00602CDE90023CDE90233094A0A487C
:1004D0004FF0805308BF00226946069302F0F6FFF2
:1004E00008B101F039FC054B1E7008B070BD00BFAB
:1004F000A0A5020095040000CC000020B403002059
:1005000007B5044B0093044A4023FFF761FF03B093
:100510005DF804FB1D050000B503002038B50D4B48
:100520000D4D002018700D4804782D5DD2B21C4688
:1005300065B1043004F058F908B101F00DFC084B26
:100540001A7812B12378002BFBD038BD0C3003F0A1
:1005500007FFF1E7F5030020400C0020CC0000204D
:10056000B403002008B50848084A0378D35C3BB1BF
:10057000043004F0D3F8BDE808400020FFF792BF34
:100580000C3003F099FEF6E7CC000020400C002070
:100590000120FFF787BF000008B5FFF7F9FF044807
:1005A000042100F0D1FB034B01225A7108BD00BFAA
:1005B000ACA40200E0000020037813F0040216D07F
:1005C00003F00303012B03D0022B09D00120704755
:1005D0000A6800880232C0F3831002440A60F5E71B
:1005E0000B684288023303EB92130B60EEE7104670
:1005F000704700002DE9F04F044685B0861C0020AE
:100600000F46154601F078FD454801683960D0E98C
:100610000132134401335B1A824600F21C4700F595
:10062000836900F21448B3421BD30020002D72D01E
:1006300004F00F039B0143F0050363F30F00DAF8A6
:100640000020DAF808301340033316444AF8230038
:100650000020CAF8006001F051FD012005B0BDE89E
:10066000F08F0121384601F06BFF484601F083FF0F
:10067000404601F080FFDAF80400DAF808B0009094
:1006800000EA0B0003300AEB80006946FFF794FF95
:10069000009B50BB0BEA03020AEB820203F1020C3F
:1006A000D2680192013303EA0B0B0AEB8B0B02F0C9
:1006B0000302012ADBF80C10CDF800C023D0022A77
:1006C00016D08346404601F059FF10B1009BCAF88E
:1006D00004305946384601F033FFDAE90123134468
:1006E000DAF8002001339B1A9DE70BEA0300C9E703
:1006F000BDF80630C3F3891303334FEA114B0CEBFB
:1007000093030093DEE7BDF80430C3F383134FEA8D
:10071000114B6344F5E7A40544F006008FE700BFE2
:10072000C804002030B50A4B0A4A0B49D21AD20835
:1007300000239A4201D1052006E031F823500468D5
:10074000A54202D10360002030BD0133F1E700BFB4
:10075000F4A30200ACA40200000000202DE9F84F31
:10076000224B2348FF229A600022C3F81824C3E9D1
:100770000022C3F8142483F8202402F06AFB814687
:1007800088B91C481C4E1D4CDFF87CA002F0D2FC3E
:10079000A41BE4084D46A54208D10023184A194875
:1007A0001946A3421BD14846BDE8F88F4FF0000818
:1007B000474606EBC50BBD420AD056F83710DBF8AA
:1007C0000000142205F0B6FE0028C8BF08F1010899
:1007D0000137BC42EFD12AF825800135DBE720F84C
:1007E000231042F8041B0133DBE700BFC8040020DC
:1007F000BCA4020008A60200F4A30200ACA40200FC
:100800005C000020020000200000002007B50190DD
:1008100031B9019A064B53F8320003B05DF804FB7E
:1008200001A8FFF77FFF0028F3D00020F5E700BF05
:10083000F4A30200094B013903EBC000032909D8D6
:10084000DFE801F00A0204060420704700797047CF
:10085000407970470020704702207047F4A30200DF
:1008600030B5124C00EB400054F8215002FA00F36E
:10087000072202FA00F06B400D4A03406B40C3F3BD
:10088000821044F8213002EB8101C3F3C20282429C
:1008900038BF0246C3F34220824203F0070338BF49
:1008A0000246934238BF13464B8030BD5C000020A7
:1008B00000000020154B93F8203437B504460BB9DF
:1008C00018B90024204603B030BD05F0DFFE01302A
:1008D000009001230E486A4601A902F034FC054647
:1008E0000028EED12146009A019805F051FEDDE97D
:1008F00000231344064803F8015C009902F05BFCF6
:100900000099034802F06EFC019CDBE7C80400205C
:1009100008A60200034BD3E90030C31A58425841DD
:10092000704700BFC80400202DE9FF47FFF7F2FF22
:100930000646002840F01A818D4DC5F81804BFF313
:100940004F8F6B68AC6800932340033305EB830043
:100950006946FFF731FE009B18B1D5F81824002A2C
:1009600069D004EA0302991C013305EB820223409B
:1009700005EB8303D268DB68029302F00303022BCA
:10098000019200916AD1BDF806307A489DF8046062
:10099000C3F38918B8F1500FC14628BF4FF0500972
:1009A00069F38F1309F10801ADF8063002F069FA16
:1009B000C6F3C2060746002800F0BF8002F090FA96
:1009C0000023082201A9384602F09DFA009924EA82
:1009D00001020132B9EB820F4FEA820337D95FFA85
:1009E00089F983B32140DCB2A9EB040903315FFA32
:1009F00089FAA146604C05EB810108234A46384636
:100A000002F081FA34B109F1080352462146384612
:100A100002F079FA009B08F1030803EB98030093B6
:100A2000D5F81834002B52D1D5F81044DFF85C917A
:100A30004FF0070870E02A689A4285D86A6030460D
:100A400004B0BDE8F0874C491C469A46D5E70C40F7
:100A5000E11C08234A4605EB8101D8E7012B6CD144
:100A6000BDF804604348C6F38311062928BF062158
:100A700061F3891602318900ADF8046002F001FAD1
:100A8000C6F3C2060746002857D002F029FA002311
:100A9000082201A9384602F036FA4FF00008BDF8E6
:100AA0000420C2F383124FEA8803904503F1080340
:100AB000B6D200994A1C21400331009205EB810116
:100AC0000422384602F01FFA08F10108E7E7384629
:100AD00002F00AFAFFF71EFF80F00100C6B2AEE78F
:100AE000E3685A79B2B11B79BDF8081003EB4302F1
:100AF00059F8211008FA02F3052E03EA010323FA3C
:100B000002F308BF0326B34204D3236839461B68A7
:100B100020469847E3681C68002CE1D1384602F073
:100B2000E3F9204601F0E8FAD5F818340BB9009B38
:100B30006B60002001F0E2FACCE7D5F8104474B9FC
:100B40000E4B5B88012BC5D90D4B0E480E49C01AC0
:100B5000C008000440F0020000F066F8BAE723681D
:100B600020469B689847E3681C68E8E7002666E72C
:100B7000C8040020BCA40200D40400201C000020F3
:100B8000F4A302002CA40200DDA502005C000020FA
:100B90002DE9F74F224D04460F46924601A9012246
:100BA0001846D5F808909B46FFF724FD20B3019E18
:100BB0004FF00008B21CD84508EB020126D11948B5
:100BC000002101F082FC80F31000000440EA144090
:100BD000E400731C04F0380403EA090306EA09067A
:100BE00044F0010405EB8303033644EA881444EA25
:100BF0008724D86045F8264095F820341BB1FFF7CC
:100C000093FE0028FBD103B0BDE8F08F09EA010193
:100C100005EB81015AF82830CB6008F10108CAE7DA
:100C2000C8040020E408002000231A46FFF7B0BFE4
:100C300007B50123019201AAFFF7AAFF03B05DF8EF
:100C400004FB07B5CDE9002302236A46FFF7A0FFA6
:100C500003B05DF804FB1FB5CDE90123069B0393A8
:100C600001AA0323FFF794FF05B05DF804FB1FB54D
:100C7000CDE90023069B0293079B03936A46042356
:100C8000FFF786FF05B05DF804FB00002DE9F34790
:100C90002B4D0446D01C8946164601A90022800827
:100CA000AF68FFF7A7FCA8B3DDF80480AB6808F1D4
:100CB00002000190013338401B1AB6EB830F00F19C
:100CC00003004FEA830A05EB80002DD832464946DF
:100CD00005F05EFC1B48002101F0F7FB80F31000DB
:100CE00008F101033B4007EA0807220C05EB8303E8
:100CF000033742EA0040E400D86004F0380455F8B5
:100D0000273044F0020444EA865203F47C131A4369
:100D100045F8272095F820341BB1FFF705FE002881
:100D2000FBD102B0BDE8F0875246494605F030FCE1
:100D3000A6EB0A0209EB0A0105F10C00C8E700BFA7
:100D4000C8040020E40800201C4A2DE9F843D2F82A
:100D50001034054688460024194689B9E9680C71A3
:100D6000A3B9C2F810540B60154B164EF61AF608CC
:100D7000002703F10709B7420DD12046BDE8F883EB
:100D8000C9680879A04212D00968E6E7DB681A68EA
:100D90000A601D60E8E719F83720EB6842453946DC
:100DA000187928BF4246FFF75BFD0137E3E70134BE
:100DB0000A2CD1D14FF0FF34DFE700BFC804002078
:100DC000F4A30200ACA4020007B503460846197A52
:100DD000052911D05B7A2BB1094A0A49019001F02B
:100DE0002AFC01980849019001F025FC019803B004
:100DF0005DF804EB01F014BC002AF8D0F2E700BF64
:100E000014A602007FB1020036A6020030B5C388E6
:100E100085B004460D4633B1144A00921449154A70
:100E2000284601F008FC217A05291DD0637A4BB1D0
:100E3000A088FFF7FFFC104B104953F820202846EC
:100E400001F0F9FB227A0E4BA08853F8222003927E
:100E50000021FFF7DBFC039A0A490346284605B048
:100E6000BDE8304001F0E7BB05B030BD14A602007C
:100E700021A6020019A60200A4A602007FB102006A
:100E8000C8A6020039A602002DE9F04385B01F462E
:100E90000C9D002395F80C902B7306460C4690464B
:100EA00029463846FFF7B2FFB8F1060F09D8DFE848
:100EB00008F00412181F283340003146284601F07C
:100EC000BAFB002229463846FFF77EFF85F80C90D2
:100ED00005B0BDE8F08322683146284601F0ABFB3F
:100EE000EFE7D4E900233146284601F0A4FBE8E708
:100EF000A36800933146D4E90023284601F09BFB08
:100F0000DFE7E3680193A36800933146D4E9002347
:100F1000284601F090FBD4E723690293E36801932C
:100F2000A36800933146D4E90023284601F083FBEF
:100F3000C7E76369039323690293E3680193A36896
:100F400000933146D4E90023284601F074FBB8E74A
:100F500008292DE9F74F80460E4617461C463CD817
:100F6000002593F80C901D7319461046FFF74EFFAD
:100F7000DFF888A0DFF888B0AE4231D918F8052034
:100F80005946204601F057FB0135082DF4D1194987
:100F9000194DDFF870A0204601F04DFB4FF0000B1B
:100FA0005E4522D918F80B207E2A05D810460192FA
:100FB00005F040FA019A00B92E225146204601F070
:100FC0003AFB0BF1010BBBF1080FE9D101222146DD
:100FD0003846FFF7F9FE84F80C9003B0BDE8F08FB7
:100FE0005146204601F027FBCEE72946204601F076
:100FF00022FBE6E74DA602004BA6020049A602002E
:1010000043A602004FA60200074B1B5C1F2B8ABFA2
:10101000064A4FF0A04203F01F03D2F80405D8405F
:10102000C04300F001007047E0A60200000300503A
:10103000074B1B5C1F2B86BF064903F01F034FF0B5
:10104000A041012202FA03F3C1F80C35704700BF3A
:10105000E0A6020000030050074B1B5C1F2B86BF5D
:10106000064903F01F034FF0A041012202FA03F3E7
:10107000C1F80835704700BFE0A602000003005029
:1010800008B50020FFF7E8FF0120FFF7E5FF022089
:10109000FFF7E2FFBDE808400320FFF7DDBF08B51A
:1010A0000020FFF7C5FF0120FFF7C2FF0220FFF776
:1010B000BFFFBDE808400320FFF7BABF0A4B185C2A
:1010C0001F288ABF094B4FF0A04300F01F00D3F840
:1010D00004250121814021EA02000A40C3F80805E5
:1010E000C3F80C25704700BFE0A6020000030050C3
:1010F000074B1B5C1F2B8ABF064A4FF0A04203F030
:101100001F03D2F81005D840C04300F0010070471B
:10111000DCA60200000300500B2809D00C2809D0DF
:10112000182809D019280CBF03204FF0FF30704752
:10113000002070470120704702207047C20710B599
:1011400004460CD54FF0A0430322C3F83427C3F85C
:101150003827C3F83C27C3F84027FFF791FFA307C0
:101160000AD54FF0A0430C22C3F82C27C3F8302730
:10117000C3F86027C3F8642710BD000010B50D49FF
:10118000A1F5BC72914201D800200FE08C1AE30F48
:1011900003EBE4035B1002EBC30452F833308342E9
:1011A00005DC02DA04F10802ECE7606810BD2146B4
:1011B000E8E700BF78AB020008B5FFF7DFFF024B9E
:1011C000002808BF184608BDEAA9020007B5002399
:1011D00001938DF803300DF1030002F029F99DF819
:1011E0000330032BF7D904210DEB010002F02AF99B
:1011F00018B9019803B05DF804FB0020FAE708B5C0
:1012000000F0A0FA00F08AF8002002F0E1F820B126
:10121000852802D000F0D8F8FCE7FFF7D7FF05F0EB
:1012200083F902F091F910B900F0CEF8FCE708BD9F
:1012300001F07EBE08B500F0C7F8FCE762B6704763
:1012400072B67047FFF7C2BF00F0C2BA38B50D469C
:1012500014465AB151B148B102F0BCF929462046B2
:1012600002F08CF910B900F0AFF8FCE738BDEFF3ED
:101270000580003818BF0120704700004FF08053F0
:1012800007B51A6E596E064B02F0FF021343CDE903
:1012900000130822694605F07BF903B05DF804FBF2
:1012A0000036CEF40048704784090020704701F0F2
:1012B00055BE704708B502F0ABF80748074A0378F7
:1012C000D35C23B1BDE80840043003F027BABDE881
:1012D00008400C3002F0F0BFCC000020400C002091
:1012E00008B5002002F074F810B100F06DF8FCE7CA
:1012F000BDE80840FFF74CB910B5044658B1FFF7F8
:10130000D9FF204600F080FA01F028FE00F09AFA9A
:101310000446FFF7E5FF204610BD000008B50AF0BF
:10132000FBFD48B9054B1A78054B1B78134303D0D6
:10133000BDE808400AF0F6BD08BD00BFDD02002090
:10134000E00200202DE9F84307460D460AF0E4FDCF
:1013500058B1184C184BDFF86890DFF86880E41A31
:10136000E408240444F003040DB9BDE8F883D9F877
:101370000000C0F10806AE42A8BF2E4632463946EC
:10138000404405F005F9D9F800203244082AC9F88C
:1013900000203744A5EB0605E6D1084B5B88022BFD
:1013A00003D941462046FFF771FC0023C9F80030FD
:1013B000DAE700BFA4A40200F4A302005800002052
:1013C000D0090020C809002010B50C4C226882B159
:1013D0000B4B5B88022B0AD90A480B4B0B49C01AEE
:1013E000C008000492B240F00300FFF74FFC002356
:1013F0002360BDE81040FFF797BA00BFD009002076
:1014000058000020A4A40200F4A30200C809002090
:101410000378022B01D80AF093BD70474FF01023D8
:1014200058694FF08053411C1A695B6908BF03FB80
:1014300002F0A0F5104070474FF010234FF080529B
:101440005B6911695269581C10B50B4C08BF02FB4F
:1014500001F32361FFF7E2FF084BE0600022084937
:10146000C3F80821204601F0B3FA18B1BDE81040D6
:10147000FFF7E0BE10BD00BFB8000020D409002077
:1014800030AE02004FF4804070470220704708B52C
:1014900013460A4631B143B10146184605F078F8C3
:1014A000002008BD6FF00A00FBE76FF00B00F8E7C3
:1014B0000128F8B507460C4616461D4610D80B44C1
:1014C000B3F5804F0FD28AB19DB1FFF7A7FF04EBB0
:1014D000873421182A46304605F05AF80020F8BD16
:1014E0006FF03800FBE76FF01600F8E76FF00B00C5
:1014F000F5E76FF00C00F2E70128F7B507460C4658
:1015000016461D4624D80B44B3F5804F23D22AB388
:10151000AB0826D0FFF782FF04EB87310C180AF0E6
:1015200017FD07460028FAD10AF002FD21460E48B1
:1015300000972B46324601F087FA04460AF008FD70
:101540000028FBD1201E18BF0120404203B0F0BD8F
:101550006FF03800FAE76FF01600F7E76FF00B0056
:10156000F4E76FF00C00F1E7B800002001282DE946
:10157000F041064624D8FFF751FFDFF8508000EB1A
:10158000863505F580470AF0E3FC04460028FAD1C9
:101590000AF0CEFC234601222946404601F014FB06
:1015A00088B90AF0D5FC04460028FAD105F5805523
:1015B000AF42E8D130460AF0D3FC2046BDE8F081C6
:1015C0006FF03800FAE74FF0FF30F7E7B80000207F
:1015D00010B5084CD4F8083153B19BB2D4F80411BB
:1015E00094F800012246FFF787FF0023C4F8083172
:1015F00010BD00BFD40900202DE9F8431C4C1D4646
:10160000D4F8083181460F4690466BB194F800211A
:10161000824207D1D4F804211A44914202D1B3F591
:10162000807F01D1FFF7D4FFD4F8080118B984F8FE
:101630000091C4F80471C0F58076AE4234BFB6B2F2
:101640002E464EB132464146204404F0A1FFD4F864
:1016500008313344C4F80831AD1BADB215B9284682
:10166000BDE8F883FFF7B4FF3744B044DCE700BFC0
:10167000D409002007B50B4B0093FFF7CFFE0422DF
:1016800000F500410DEB020004F082FF04226946E0
:101690000DEB020004F0D3FEB0FA80F0400903B075
:1016A0005DF804FBE737DDF607B5CDE90010FFF77D
:1016B000B5FEDDE9001200F50040043003B05DF82E
:1016C00004EBFFF7E4BE37B5054601911446FFF77A
:1016D000A5FE04F50044043401992A46204403B0D1
:1016E000BDE83040FFF7D3BE0048704780AB020032
:1016F00002490022C0E90012704700BF040003063F
:101700007047B0F5A27F01D10AF02CBC70470000F1
:1017100010B5084CFFF794FD2378012B05D1FFF796
:10172000E3FF02F073FB00232370BDE81040FFF7D6
:1017300085BD00BFF80A0020014B1878704700BF34
:10174000F80A00201FB502A8FFF7D2FFFFF7CCFF71
:10175000104A02A902F0D8FA08B1FFF76BFDFFF7B3
:10176000C3FF0368D3F81045FFF7BEFFE2B24FF4A2
:101770007031012421FA02F202232146009402F082
:1017800099FBFFF7B1FF02F027FB034B1C7004B07D
:1017900010BD00BF03170000F80A002008B5FFF7CE
:1017A0004FFD0A4B1B782BB9FFF7CCFFBDE8084073
:1017B000FFF744BDFFF798FF02F04CFB0028F5D17E
:1017C000FFF792FF02F008FBF0E700BFF80A0020E5
:1017D00038B5FFF735FD0B4B1B78012B0FD1FFF709
:1017E00083FF022102F042FB04460EF057F9054642
:1017F000FFF724FD4FF4705000FB054038BD002476
:10180000F3E700BFF80A002010B5044628F0BAFC40
:10181000094B186074B1094B094A18604FF47A708B
:10182000444300215C601846BDE810409A60D960CE
:1018300028F0B4BC10BD00BFE00A0020E40A00207C
:101840000117000008B528F09DFC054B1B68C3F587
:101850007973033318444FF47A73B0FBF3F008BD87
:10186000E00A002030B50F4D8BB024F0C1FB0FCD46
:1018700001AC0FC40FCD0FC42B68236001A827F063
:1018800019F9FFF713FD012024F024FC24F0D6FB06
:10189000032801D124F0DEFB012024F01DFC0BB055
:1018A00030BD00BF88AB020024F09EBB07B5ADF889
:1018B00006000DF1060024F095FB03B05DF804FB73
:1018C00007B5ADF806000DF1060024F08FFB03B05C
:1018D0005DF804FB4FF4705310B503FB00F4204691
:1018E00024F0D5FB0028FAD010BD24F065BB24F00D
:1018F00072BB10B5044624F070FB207010BD003898
:1019000018BF012024F0E6BB003818BF012024F0E6
:10191000DFBB08B924F0A1BB24F0A7BB08B524F0B5
:101920008DFBC31E5842584108BD08B524F086FB04
:10193000023818BF012008BD10B50446012C10461E
:1019400004D0042C05D00024204610BD24F0C6FB92
:10195000FAE7BDE81040002124F08DBB10B50C461D
:10196000FFF7A0FC036A013303622046BDE8104084
:1019700005F00EBC24F090BB08B507290AD8DFE8B3
:1019800001F0040A141B21272D33FFF78BFC436A57
:101990000133436208BDFFF785FC836A013383622C
:1019A0000120BDE8084005F02DBCFFF77BFCC36AB1
:1019B0000133C3620420F4E7FFF774FC036B0133C7
:1019C0000363EDE7FFF76EFC436B01334363E7E727
:1019D000FFF768FC836B01338363EBE7FFF762FC7F
:1019E000C36B0133C363DBE7FFF75CFC036C0133BC
:1019F0000364D5E730B585B0CDE9022104460193F3
:101A0000FFF750FC05680399DDE9013201350560F7
:101A1000204605B0BDE8304005F018BC08B50628E2
:101A20000AD8DFE800F0040D13191F252B00FFF77B
:101A300039FC436801334360134B00221A6008BD30
:101A4000FFF730FC836801338360F5E7FFF72AFC7A
:101A5000C3680133C360EFE7FFF724FC0369013378
:101A60000361E9E7FFF71EFC436901334361E3E7E4
:101A7000FFF718FC836901338361DDE7FFF712FC90
:101A8000C3690133C361D7E728310020C30710B50C
:101A900007D4F023054A4008145C2340194311542D
:101AA00010BD0901C9B20F23F4E700BF080B0020E5
:101AB00030B5094B1C78094B196800239C4202DCA5
:101AC0000022104630BD11F83350854201EBC302AD
:101AD000F7D00133F2E700BFF90A0020280B0020FD
:101AE00013B504460191FFF7E3FF38B143682BB10A
:101AF0000199204602B0BDE81040184702B010BD61
:101B0000034B044819680022490800F0ECB900BFF3
:101B1000FC0A0020E800002010B5C0B2FFF7C8FFA3
:101B20000446007801F06CFF63785A1E534253411B
:101B3000834208D1044BD3E90023134303D1BDE80A
:101B40001040FFF7DDBF10BD000B002038B5334A51
:101B500043080446D35CC2074CBF1B0903F00F03C4
:101B60000D46042B59D8DFE803F003222A3639004A
:101B7000002952D00121FFF789FF002000F0BCFAB4
:101B80000120A4F12003C4F12001254A20FA01F12B
:101B900000FA03F30B43A040D2E9004120430B437A
:101BA000C2E90003BDE83840002000F0A7BA0029D0
:101BB00018BF02212046BDE83840FFF767BF41B19A
:101BC0000321FFF763FF20460121BDE83840FFF7FE
:101BD00087BF0121EEE701BB0421EBE709B1032137
:101BE000E8E7FFF753FF29462046FFF779FF28462D
:101BF00000F082FA0120A4F12003C4F12001084A78
:101C000020FA01F100FA03F30B43A040D2E90041AE
:101C100024EA000021EA0303C2E738BD080B0020D4
:101C2000000B00202DE9F041124E134F00243378B1
:101C3000A34208DC114BD3E90023134318D0BDE8BD
:101C4000F041FFF75DBF3D6805EBC40815F83400AF
:101C500001F0D6FE98F801305A1E53425341181A2B
:101C60004142414115F83400FFF770FF0134DEE7CF
:101C7000BDE8F081F90A0020280B0020000B0020AD
:101C8000092AF7B505460C4616463CD901F0E8FD91
:101C9000D8B11E4B1E481D601E4B1F4F1C701F4BA2
:101CA000002120221E6004F09CFC1D4B002000211E
:101CB000C3E90001013CE4B20326FF2C0BD1194A11
:101CC0001948002100F004F903E001F091FD00281B
:101CD000DFD003B0F0BD9DF8063015F834008DF864
:101CE000046005EBC40223F007038DF8063001A958
:101CF00093788DF805303A4601F0BCFD013CE4B222
:101D00000028DAD0E5E70720E3E700BF280B002032
:101D1000080B0020F90A0020191B0000FC0A002013
:101D2000000B0020251C0000DCAB020070B5084D44
:101D3000084E00242B789C4201D3002070BD3368EC
:101D4000012113F8340001F011FE0134F2E700BF65
:101D5000F90A0020280B00201FB50021039001AADA
:101D600044F20100CDE90111FFF7A3FA05B05DF8D7
:101D700004FBD0E90223D1E90201994208BF904255
:101D80002CBF01200020704708B50B4800F0E9FA8D
:101D90000A4B0B49D3E900231218D1E9000143F1A2
:101DA00000038B4208BF824203D212F1807243F1DA
:101DB00000031046194608BD24010020300B002006
:101DC000980B002037B505460C460A4801A900F0DB
:101DD00007FB60B10570446001A9064800F02AFBCA
:101DE00018B1054800F0C2FA002003B030BD04204D
:101DF000FBE700BF100100202401002038B5194B7B
:101E00001B78044613B90025284638BD0028FAD0AF
:101E100090F8203003F0FF05002BF4D0FFF7B4FF5B
:101E2000D4E90223994208BF904216D323690BB923
:101E300084F82030D4E90530984721690029E2D0A0
:101E400094F8203003F0FF05002BDCD0D4E9022306
:101E5000521843F10003C4E902230348214601F06C
:101E6000DCF9D1E7380B002000AC020013B5114BB0
:101E700011491868019008231048582200F09DFA73
:101E8000044698B90E4A0F4801A900F049F90446E2
:101E900060B90C48012100F047FA01230A4A0948B9
:101EA000194600F0A9F9094B01221A70204602B028
:101EB00010BD00BFFCAB02003C0B00201001002055
:101EC000351F000024010020FFFF7F00380B002099
:101ED0003AB103685A614A1E5142514119610020CA
:101EE00070470720704738B590F8203004460D46FB
:101EF00083B98261FFF748FF2369401941F100016E
:101F0000C4E9020103B1256121460020BDE8384043
:101F1000FFF758BF002038BD0023014680F820306D
:101F20000120FFF74FBF0000014800F01ABA00BFC0
:101F3000240100202DE9F04F85B0804600F0FCF927
:101F400040B15C4AD2E9003113F1807341F10001E4
:101F5000C2E900310021404600F0FDF938B1564E8B
:101F6000336823B13068FFF749FF00233360012154
:101F7000404600F0F0F920B1FFF706FF4F4BC3E9F0
:101F800000014F484C4F4F4EDFF8409103A900F03D
:101F900061FA002846D1DFF82C91474EDFF830A1D6
:101FA000484601F050F93368002878D083B133688F
:101FB000D0E90201D3E90223994208BF90422ED210
:101FC000336893F820301BB13168484601F025F999
:101FD000484601F032F9D0E902B307460193FFF712
:101FE000D3FE019BBBEB000463EB0105012C75F1F3
:101FF000000347DBB4F5350F42D3FFF795FF324AB4
:1020000002444FF496030021504600F015F90028D1
:1020100040D1336813B9404600F0E6F8376005B0A8
:10202000BDE8F08F0378012B1FD0022B09D14FF0B0
:10203000000A304601F001F9002836D080F820A0CF
:10204000F7E74BB9416891F820302BB9012381F8AB
:102050002030304601F0E1F803A9194800F025FAD4
:1020600003A9174800F0F6F993E741683B689942E5
:1020700002D100233B60EFE7304601F0E7F8EBE7E1
:10208000BA68BEE70021504600F05BF93846FFF71A
:10209000B5FE01E00D28F9D00023336080E7002B66
:1020A000BDD1404600F0A4F8B9E7012389F800301B
:1020B000D2E700BF300B0020A00B0020980B0020BF
:1020C0001001002000AC0200FFFFB400380B00201C
:1020D0002401002072B6024A13680133136070476E
:1020E000A40B0020034A1368013B136003B962B6D6
:1020F000704700BFA40B0020FFF7ECBFFFF7F2BF53
:1021000090B200F04DB9435882B03BB10023435028
:1021100043580193019B012002B070471846FBE72A
:10212000F8B5284B4679284C43F82620274B5F8882
:1021300004EBC6034FEAC60C1B796BB1012F09D91A
:102140002348244B2449C01AC008000440F0020070
:10215000FEF76AFD0820F8BD03680A88C3F8082561
:1021600090F904508A780379002DADBF05F16041E4
:102170001A4903F00F0E01F561414FEA4212D2B243
:10218000B4BF01F80E2081F800236D090122144923
:1021900003F01F0302FA03F341F8253004EB0C03AC
:1021A000022F44F836001A7109D90948094B0D4924
:1021B000C01AC008000440F00300FEF735FD0020FF
:1021C000C9E700BFB00B0020A80B002024000020AE
:1021D0003CA40200F4A302000CAC020014ED00E0E9
:1021E00000E100E02EAC0200036801221A60704793
:1021F000036801225A60704773B501F15005AD00C4
:102200000068ADB24FF480348C400026C0F808431B
:10221000C0F84843465101F5A8714559019522F08F
:102220007F42019D40F82120C0F844430BB1C0F823
:10223000044302B070BD00002DE9F74F0D4622F0B7
:102240007F4402684FF4803705F150068F40804686
:10225000B60002EB8500C2F84873B6B2C2F8087344
:10226000D2F8041599464FF0000BD0F84035C0F86D
:10227000401542F806B05B1A9259009223F07F4352
:10228000012B009A4FEA850A0CD1264B4FF480604F
:1022900043F001039847D8F8003043F806B09B5943
:1022A0000193019BD8F80010D1F80465C1F844737C
:1022B000A31B23F07F43012B1CD11A4B05F5A875F6
:1022C000013443F0010341F825404FF48060984702
:1022D000D8F80030D3F804359E4209D1D8F8003040
:1022E0000020C3F84473C3F8047303B0BDE8F08F53
:1022F0000D20FAE78A44C9F1FF13CAF84045D1F826
:102300000405221A013A22F07F4203F57F439342EB
:10231000EED3002AE2D10134CAF84045D1F80435A1
:102320009842DAE740AC020003680222C3F8442373
:1023300009B1C3F80423704700684FF48271FFF7B6
:10234000E2BE4FF4803303FA01F10368C3F8481387
:10235000C3F80813704750318900006889B2FFF74D
:10236000D2BE0368D3F804057047000090F904302A
:1023700001215A0903F01F0301FA03F34032024915
:1023800041F82230704700BF00E100E0024B034AF1
:102390001B681068184700BFB00B0020A80B002076
:1023A00007B5ADF8000001916A46002144F2020031
:1023B000FEF77FFF03B05DF804FB10B561B1B2FB1F
:1023C000F3F403FB1424A4B244B9C0E900148460FC
:1023D0008281C381204610BD0E20FCE70920FAE768
:1023E00037B550E8013F9DB2C48925448489A54290
:1023F00028BF2D1B0489A54202BFBFF32F8F0022E7
:1024000007E0C5EA030540E80154002CE9D14FF08C
:1024100001028DF803200193019B9DF803200B60BE
:1024200002F0FF0322B10B880068184403B030BDEE
:102430001846FBE70A884B889A4209D150E8012FD9
:10244000C2EA024240E80123002BF7D10120704785
:102450000020704737B550E8023F1FFAA3F5C48843
:10246000A54202BFBFF32F8F00220DE0C48925448F
:102470008489A54228BF2D1BC3EA054540E80254C4
:10248000002CE8D14FF001028DF803200193019B4D
:102490009DF803200B6002F0FF0322B14B88006817
:1024A000184403B030BD1846FBE70A884B889A42AF
:1024B00009D150E8022FC2EA224240E80223002B51
:1024C000F7D1012070470020704710B5034653E84C
:1024D000000F0A4643E8002494F0000FF7D110BD26
:1024E00010B5034653E8000F40EA010243E8002418
:1024F00094F0000FF6D110BD10B5034653E8002F3D
:1025000042EA010043E8000494F0000FF6D110BD48
:1025100010B5034653E8000F00EA010243E8002427
:1025200094F0000FF6D110BD10B5034653E8002F0C
:1025300002EA010043E8000494F0000FF6D110BD58
:1025400010B5034653E8002F02EB010043E80004F6
:1025500094F0000FF6D110BD10B5034653E8002FDC
:10256000A2EB010043E8000494F0000FF6D110BD87
:102570000121FFF7B5BF0121FFF7BEBF0021FFF723
:10258000C7BF0021FFF7D0BF10B590B1D0E901233C
:1025900001689B1ADBB20A60013BDBB2FF2B0268C9
:1025A00002D10020107110BD11684C1C14600B701A
:1025B000F2E70E20F7E738B504460020FFF79CFD50
:1025C000226863681168994213D9481E106011F897
:1025D000015CE368A18A01FB0535A36811791B1A28
:1025E000DBB2994200D213710020FFF787FD284625
:1025F00038BD0025F8E738B5054600200C46FFF742
:102600007BFD2A681368591C1160E968641AA98A5D
:10261000B4FBF1F41C70BDE838400020FFF76EBD3C
:10262000826810B504462AB1436901680069984779
:102630000023A36010BD0EB403B5039921B104AB10
:1026400001AA019300F076F802B05DF804EB03B044
:1026500070470A2938B504460D4602D10D21FFF70F
:10266000F8FFA3682268591CA160D554D4E901324F
:102670009A4204D32046BDE83840FFF7D1BF38BDA9
:102680002DE9F84F9846DDE90A43154682460F4684
:102690000A464FF00109AA420FD2C14538BFC146D0
:1026A00013F0010B01D16CB900240126B8F1010F20
:1026B0001BD908F1FF386E43F8E709F10109B2FBB5
:1026C000F5F2E8E79B070ED5B8F1000F0CBF3026F6
:1026D0002026A145E9D2013C31465046FFF7B9FF1B
:1026E000002CF6D1E0E72026F3E7B7FBF6F39D4296
:1026F000E1D9DFF83C80B7FBF6F3504618F8031039
:1027000006FB1377FFF7A5FF3346AB42B6FBF5F6A2
:10271000F1D2BBF1000F02D00CB1A14501D3BDE84D
:10272000F88F20215046013CFFF793FFF4E700BFEC
:1027300046AC02002DE9F74F0546174688460029AA
:1027400000F0428118F8011B49B92B7B002B00F0E7
:102750003B81284603B0BDE8F04FFFF761BF252954
:1027600040F0B780002698F800302D2B424608F143
:10277000010823D0302B24D02B2B25D000242A2B4A
:1027800002F1010123D13B681A1D1B683A601C4409
:102790000A4613782E2B26D101324FF0000A10463C
:1027A00010F8011BA1F1300CBCF1090F1DD80A2350
:1027B00003FB0A13A3F1300A0246F0E746F00106D4
:1027C000D1E746F00206CEE746F00406CBE711F863
:1027D000013CA3F130000928DBD80A2202FB0434B3
:1027E000303C0A46CBE74FF0000A12F8011B01F01B
:1027F000FB0068289046F8D0782909D86F290CD8B2
:10280000632962D022D8252963D0582900F0888016
:1028100098F80030002B95D197E770390829F7D840
:1028200001A353F821F000BFA329000011280000E4
:102830001128000031290000112800000F29000094
:10284000112800001128000021290000642901D06E
:102850006929DDD13A68D2F80090111D89EAE97240
:102860003960A2EBE9724FF0010B092A35DCD34540
:1028700038BFD3462CB1B9F1000F01DB720700D588
:10288000013CB30702D5BAF1000F03D0F00701D421
:102890004CBB0024B9F1000F2DDAC9F100092D213C
:1028A0002846FFF7D6FE06F00302022A04D1BAF149
:1028B000000F01D11CBB0024CDE9004653460A227B
:1028C00049462846FFF7DCFEA2E73B681A1D197847
:1028D0003A602846FFF7BDFE9AE70A230BF1010B89
:1028E000B2FBF3F2C1E7A345D4D220212846013C34
:1028F000FFF7AFFECCE77107D5D52B21D0E7A34575
:10290000DAD230212846013CFFF7A3FED2E739682E
:10291000CDE900460A1D3A6053460A220968D0E70D
:1029200039680A1D3A60CDE9004653461022F5E7A2
:102930003B681A1D3A6016F00106D3F8009028D1C2
:10294000B9F1000F03D0484603F0A0FE0646B4429A
:1029500000D904BB09F1FF3919F8011F00293FF420
:1029600057AF2846FFF775FEF6E728460136FFF712
:1029700070FE19F806100029F7D1A642BFF448AF3F
:10298000002C3FF445AF20212846013CFFF761FEB3
:10299000F3E70026EDE720212846013CFFF759FE2A
:1029A000D5E73B681A1D3A60302128461C68FFF7BE
:1029B00050FE78212846FFF74CFE00220823CDE97F
:1029C0000032214610227CE703B0BDE8F08F00BF43
:1029D00013B50B46114698B9144B5B886BB1144B79
:1029E0001448154AC01A0E23C0080093134B000464
:1029F000134940F00100FEF72EF90E2002B010BD81
:102A00006BB90A4B5B88002BF7D0094B09480D4A7C
:102A1000C01AC0080E2300930004084BE8E70360C7
:102A20001B6802B0BDE81040184700BF44000020FA
:102A3000F4A302007CA4020056AC0200ECAD02003C
:102A40005BAC02008AAC02002DE9F341B0B9514BF6
:102A50005B88002B00F095804F4B5048504AC01ABD
:102A6000C0080E244F4B009400044F4940F0010071
:102A7000FEF7F1F8204602B0BDE8F0816AB9454B97
:102A80005B88002B7DD0444B4448484AC01AC0089C
:102A90000E24444B00940004E7E7D0F800E0BEF1B8
:102AA000000F0DD13B4B5B88002B6CD03A4B3B4861
:102AB0003F4AC01AC00808243A4B00940004D4E7E7
:102AC0006BB9344B5B88002B5FD0334B3348394AAA
:102AD000C01AC0080924334B00940004C5E74568B8
:102AE000D5F80480B3FBF8F508FB15356DB1294B1B
:102AF0005B88002B49D0284B28482F4AC01AC008B1
:102B00000924284B00940004AFE78D070DD0214B1A
:102B10005B88002B3BD0204B2048284AC01AC008B5
:102B20001024204B009400049FE712F0030F0CD0F8
:102B3000184B5B885BB3184B1848214AC01AC00871
:102B40001024184B009400048FE7C568A9420BD3EA
:102B50004D1EEC180569AC4206D8DEF80C40A446C0
:102B600002B0BDE8F04160470A4B5B887BB10A4B7D
:102B70000A48144AC01AC00810240A4B00940004E2
:102B800073E70E2476E7082474E7092472E710241B
:102B900070E700BF44000020F4A302007CA4020000
:102BA00056AC0200FEAD02005BAC0200D8AC0200E5
:102BB00084AC020097AC0200DEAC020008AD02005B
:102BC00020AD020043AD0200F7B5A0B9374B5B88DA
:102BD000002B63D0364B3748374AC01AC0080E2442
:102BE000364B00940004364940F00100FEF733F8FC
:102BF000204603B0F0BDD0F800C0BCF1000F0DD1ED
:102C00002A4B5B88002B4BD0294B2A482D4AC01AEF
:102C1000C0080824294B00940004E4E76AB9234B58
:102C20005B88002B3ED0224B2248274AC01AC0089E
:102C30000924224B00940004D5E74768D7F800E048
:102C40000EF1FF370F420CD0184B5B8863B3184B63
:102C500018481E4AC01AC0081024184B00940004DB
:102C6000C1E7C768B9420CD304694D1E0EFB02557B
:102C7000A54206D8DCF81040A44603B0BDE8F040F9
:102C800060470A4B5B887BB1094B0A48104AC01A5F
:102C9000C0081024094B00940004A4E70E24A7E701
:102CA0000824A5E70924A3E71024A1E74400002095
:102CB000F4A302007CA4020056AC020011AE020094
:102CC0005BAC020084AC020097AC02006AAD02006B
:102CD00090AD0200014B43600020704724AE02001B
:102CE0000846704700207047024B1868003818BF2C
:102CF00001207047B40B002008B50248FFF741FCE3
:102D0000002008BDB40B002008B510461A4603F099
:102D10003FFC002008BD00002DE9F043814687B04C
:102D200014480E4615469846FFF722FC0446F0B9B3
:102D30000746BD4215D10F48FFF723FCD9F80830EC
:102D40005BB102228DF800200022CDE90126CDE9F9
:102D50000325CDF8148068469847204607B0BDE8A3
:102D6000F08306EB073000F045FC0137E1E7112462
:102D7000F3E700BFB40B00202DE9F041804686B098
:102D800011480F4616461D46FFF7F2FB0446C8B928
:102D9000AA083146384600F045FC0B48FFF7F1FB26
:102DA000D8F8083053B101228DF800200C9A059212
:102DB000CDE90147CDE9036568469847204606B04E
:102DC000BDE8F0811124F9E7B40B00202DE9F84F9C
:102DD000B0F806A04579D2F800B09DF828900AFB1B
:102DE00005F5043D88460BEB0301A94203F10404F9
:102DF00088BFA5EB030BB4FBFAF607460AFB1644A3
:102E0000C2F800B04EB9AAEB04055D4528BF5D4687
:102E1000BBF1000F04D1BDE8F88F3F68013EF1E738
:102E2000043408EB06003C442A46B9F1000F0DD0EB
:102E30002146ABEB050B03F0ABFBDA452E443F68B4
:102E400055464FF0000428BF5D46E1E701462046A5
:102E5000EFE7FFF799BBF8B546790146721E0546C4
:102E6000002393422D6803D30024A64202D8F8BD64
:102E70000133F6E70F682846FFF7BDFB01343946FA
:102E8000F3E72DE9F843868ACD1C0746FFF793FB4D
:102E9000043E35440446B5FBF6F5F0B14FF48073BB
:102EA000EDB28380C680013D076081464FF0000887
:102EB000A84512D23846FFF77EFB064648B1637933
:102EC0000133637108F10108C9F800000760814609
:102ED000EEE72046FFF7BFFF34462046BDE8F88303
:102EE00001210430FFF72CBB10B50121044604304A
:102EF000FFF732FB10F0FF0F04D12046BDE8104071
:102F0000FFF7A9BF10BD1FB503920022009203AACC
:102F1000FFF75CFF05B05DF804FB1FB503920122CB
:102F2000009203AAFFF752FF05B05DF804FB000012
:102F3000064B10B500241C70054B1C60BFF35F8F5F
:102F40000449054800F05FF9204610BDC00B002081
:102F5000C40B00205CAE0200B80B002008B50020B6
:102F6000FFF7CAF8F1EE103A23F09F03E1EE103AB2
:102F7000BFF35F8F054B4022C3F884210020FFF789
:102F8000BDF820BF40BF20BF08BD00BF00E100E08A
:102F9000026813685268934291BFD01A806801306A
:102FA000801888BFC01A704703682DE9F0411F6878
:102FB0001E6815465A68964286BF83680133961B81
:102FC0008846C268416888BF9E1BB542044607FB1D
:102FD00002110CD86A43404603F0DAFAA3683D4474
:102FE0009D4288BF002523681D60BDE8F08106FB77
:102FF00002F73A46404603F0CBFAE2686168AD1B3F
:103000006A4308EB070003F0C3FAECE70368816842
:103010001A685B688B4234BF01330023D31A5842CD
:1030200058417047F8B5044600200D46FFF764F894
:103030002046FFF7EBFF10B1237C002B3CD1226828
:10304000A66853685168B14234BF01310021516014
:1030500030B11168A068814234BF01310021116094
:10306000E2686068511E072920D8DFE801F00410EB
:103070001F141F1F1F182A78C2542046FFF788FF0D
:1030800023689A68824200D29860002415E02A885A
:1030900020F81320F1E72A6840F82320EDE7D5E96E
:1030A000006700EBC300C0E90067E6E7294602FBC2
:1030B000030003F06DFAE0E704240020FFF71EF898
:1030C0002046F8BD37B505460191144682B100206F
:1030D000FFF712F82846FFF75BFFA04201990AD3D9
:1030E00022462846FFF760FF00240020FFF706F87D
:1030F000204603B030BD0524F7E710B50446002094
:10310000FEF7FAFF20680C22002103F06AFABDE8FE
:1031100010400020FEF7F2BF10B504460020FEF775
:10312000EBFF2046FFF734FF04460020FEF7E6FFE2
:10313000204610BD836800225A60C3E904229A60C9
:10314000DA601A6070472DE9F04106468846174656
:103150001D4683B9B0687368D0E9031403F1010C0C
:103160000A1B62450ED100243C6015B3FFF709FA33
:103170000020BDE8F0818068FFF7FAF90028E9D067
:103180001120F6E701EA030223409A4238BF644463
:103190003B682CBFACEB0204641A9C4228BF1C465F
:1031A00033683C601344C8F80030C3681C44C460F2
:1031B000DEE72846DDE7034680685B68826810B575
:1031C0000469013323449B1A8B4209D31144C0E99B
:1031D0000211FFF7D3F9002814BF0020082010BD0A
:1031E0000420FCE7806808B582680369D21A8A4225
:1031F00007D31944C0E904110430FFF7C2F90020D5
:1032000008BD0420FCE70B684A684360934208BF8E
:103210000023016008BF4360704770B544680646EC
:103220000D46206818B1B3682946984718B9236835
:103230002B60256070BD2468F3E74368186808B107
:1032400002681A60704743681868704743681868D6
:1032500000B97047884203D102681A6001207047A4
:1032600003460068F4E7000038B5074C051E04F17A
:10327000080318BF1C4623682BB11A6822605B68DC
:1032800028469847F7E738BDD00B002020B9054BFA
:1032900001225A70FFF7E8BF012802D1014A90705D
:1032A000F8E77047C80B002038B5094C23786BB994
:1032B00008486360A3602361E36000F0D3F905462A
:1032C00000F0DCF901232370284638BD8525FBE793
:1032D000C80B00208D32000038B5134CA37805468A
:1032E00003F0FF0073B115B16B680120984700200F
:1032F000FEF702FFE3680133E3600020BDE83840D9
:10330000FEF7FCBEFEF7F8FE25B1226913463BB975
:103310002A602561E368002BECD100F0C1F9E9E7F0
:103320009D42F7D01B68F2E7C80B002038B5134C5C
:103330006378054603F0FF0073B115B16B68002098
:1033400098470020FEF7D8FE6368013363600020D1
:10335000BDE83840FEF7D2BEFEF7CEFE25B1A2682A
:1033600013463BB92A60A5606368002BECD100F0DE
:10337000A9F9E9E79D42F7D01B68F2E7C80B0020E6
:1033800038B5084C0020FEF7B7FE6368013B636068
:10339000656815B900F0A8F96570BDE838400020EF
:1033A000FEF7ACBEC80B002007B58DF807000DF185
:1033B00007010648FFF736FE0448FFF727FE08B16D
:1033C00000F070FC03B05DF804FB00BFDCA302005A
:1033D00038B50C4D2B7893B90B4B0C49002808BF1E
:1033E00018460388284620F8013F00F01BFC0446DD
:1033F00018B900F045FC01232B70204638BD852408
:10340000FBE700BF2C0C00208DAE0200A9330000AA
:1034100008B500F047FC00F04DFC0348FFF76DFED7
:10342000024B00221A7008BDDCA302002C0C002005
:1034300010B504460248FFF76FFE207010BD00BFB4
:10344000DCA3020007B50A4601460548FFF73AFE2D
:10345000019000F015FC019803B05DF804FB00BF7B
:10346000DCA302001FB503788DF800304368019398
:1034700083688DF80830C368054A0393054B684696
:1034800053F8213052F82110984705B05DF804FB3D
:10349000300C0020380C00201FB503788DF8003068
:1034A0004368019383688DF80830C368054A039325
:1034B000054B684653F8213052F82110984705B063
:1034C0005DF804FB300C0020380C0020F0B5194BDF
:1034D00090F800C0DFF86CE043F82C20164B16463D
:1034E0000A6943F82C204B7F0EF80C300C46074637
:1034F0000FCC89B06D460FC594E80F0085E80F002A
:103500001EF80C30CDF810C04BB1002E0B4A6946A6
:1035100008BF3246381D01F01DF809B0F0BD002E7D
:10352000074A694608BF324607F10C0000F0EEFD7D
:10353000F3E700BF380C0020300C00206534000099
:1035400099340000400C0020074A084B1360084AD9
:1035500003F110011160074A03F120011160064ACE
:103560000120C2F8043570477C0C00204C0C002070
:10357000480C0020440C002000E00040124B10B525
:1035800004461868884202D0102203F001F80F4A5E
:103590000023C2F80031012313604FF08073D2F88A
:1035A000001161B10023C2F80031094B1968A14232
:1035B00003D01022204602F0EBFF012002E0013B85
:1035C000EDD1184610BD00BF480C002000E00040BF
:1035D000440C0020024B01461022186802F0D8BFAC
:1035E0007C0C0020024AD2F80034002BFBD070473C
:1035F00000E001400A4908B50223C1F80435BFF3D1
:103600006F8FBFF34F8FC1F80805FFF7EBFF002363
:10361000C1F80435BFF36F8FBFF34F8F08BD00BFF4
:1036200000E001400E4B10B50124C3F80445BFF380
:103630006F8FBFF34F8F01EB8204401AA14208D174
:10364000074B0022C3F80425BFF36F8FBFF34F8FE2
:1036500010BD431851F8042B1A60FFF7C3FFEDE7C4
:1036600000E00140044A137923B9012110609180E0
:103670001846704785207047800C0020074B1A6859
:10368000D2075FBFC02283F8002301221A604FF0E7
:1036900080430122C3F81825704700BF00E100E015
:1036A000074B00221A6082B01B680193019B4FF008
:1036B00080430222C3F8042301229A6002B07047BB
:1036C00004010040074B00221A6082B01B6801937E
:1036D000019B4FF080430122C3F804231A6002B01B
:1036E000704700BF00010040074B01221A604FF0F5
:1036F0008042D2F80C3403F00113B3F1011FF8D06B
:10370000024B00225A71704704000040800C0020D8
:10371000154B07B51A687AB100221A601B6800932E
:10372000009B4FF080430122C3F808230F4B5879C8
:1037300010B95A711B6898470D4B1A6882B1002264
:103740001A601B680193019B4FF080430222C3F86B
:103750000823064B1B68012003B05DF804EB1847F3
:1037600003B05DF804FB00BF00010040800C0020A6
:103770000401004000F1804000F5C040002382B009
:10378000036003680193019B02B0704703681F2B1D
:1037900083BF03F01F03036001484FF0A040704750
:1037A0000003005007B5019001A8FFF7EFFF019B50
:1037B00000EB8300D0F8003723F44033C0F8003723
:1037C000D0F8003743EA0141C0F8001703B05DF8B4
:1037D00004FB0000054B4FF0FF32072843F8202080
:1037E00084BFC01880F85820704700BF880C0020A4
:1037F00010B5174C94F86A3043BB04F13003302104
:10380000FF22013911F0FF0103F8012BF9D1C8B2F1
:10381000FFF7E0FF01310C29F9D1062200210D4804
:1038200002F0DFFE0C4BC02283F8062340221A6010
:103830004FF4BE70FFF79EFF084B4FF00042C3F8F5
:103840000423012384F86A30002010BD0820FCE71F
:10385000880C0020EC0C002000E100E0006000403B
:10386000034B93F86A00003818BF0120704700BF6F
:10387000880C0020F7B53B4E3318054693F93030DD
:10388000002B6CDA8B78C3F34003002B0BBF0824AA
:1038900000240C200820844202D1042003B0F0BD93
:1038A00056F82470013743D1701946F8242080F867
:1038B000304013B9331983F858508B785A0717D40E
:1038C000D80737D501A80195FFF760FF019B00EBF2
:1038D0008300D0F8003723F00203C0F800372248F5
:1038E000EA0805F007070123BB40875C3B4383548C
:1038F0008B780A7813F0020328D0A40004F18044E6
:1039000004F5C0442D02D4F8103523F44F3323F4CA
:103910004073C4F810351204D4F8103505F47C5502
:1039200002F4403215431D43C4F810550020B5E79A
:103930000134B0E701A84A780195FFF727FF019B02
:1039400003F5E073920040F82320C8E7083C3444B4
:1039500094F8605045EA821284F86020E6E7082077
:103960009CE700BF880C0020EC0C002073B5224CB3
:103970002618054696F93020072A1ADD224492F8C7
:1039800058309B09032B0FD1019001A8FFF7FEFED1
:10399000019BD0F81015D94001F0010102312846F1
:1039A000FFF700FF02B070BD012B0CBF0221032105
:1039B000F5E7D3B2072BF5D8930003F1804303F565
:1039C000C043D3F8100540F00100C3F8100502F120
:1039D0004000800080B2FFF7CDFE0029E2D096F9CA
:1039E000303054F82330002BDCD0012303FA02F2EC
:1039F000024BC3F80423D5E7880C00200060004088
:103A000007B5019001A8FFF7C1FE019BD0F8100592
:103A1000D84000F0010003B05DF804FB2DE9F04F41
:103A2000002489B0CDE90244624D4FF48072012137
:103A300002F1804303F5C04390B21B68012B06D10D
:103A4000D5F804330B4202D0FFF794FE0C43043246
:103A5000B2F5907F4FEA4101EAD1574B1B68012B29
:103A60000ED14FF4BE70FFF785FE4FF0A04344F037
:103A70000044D3F810350293504BD3F8103503931C
:103A800014F0FF0F1AD04E4F00250126344210D0FB
:103A9000AB0003F1804303F5C043D3F81005D3F81E
:103AA000101557F8253023B1C1F30141C0F30520AB
:103AB00098470135082D4FEA4606E7D1002C75DA04
:103AC00004AF002304937B604FF0FF33CDE906334E
:103AD000DFF8EC90DFF8EC800026354618F9012B72
:103AE000531C4AD0C2F3C2000123D4B202F03F0BF0
:103AF00002F0070203FA02F208AB191811F8083CA9
:103B000013423AD009EB0B03A40993F9303059F86A
:103B100023A0BAF1000F08D1032C2ED117F800C052
:103B20004CEA020C07F800C001E0032CF6D001A813
:103B3000CDF804B0FFF72AFE019B11F8181C03F51D
:103B4000E07C114250F82C00C0F3014005D002285F
:103B500013D1032C0BD1214604E003280DD1032CF3
:103B600005D102215846FFF71DFE0135EDB2BAF12D
:103B7000000F02D021465846D0470136042EADD161
:103B8000A5B14FF0A0430299D3F8102503F5407377
:103B90009142D3F8103502D10399994206D002928E
:103BA0000393049A059B0692079393E709B0BDE837
:103BB000F08F00BF006000407C61004000030050B7
:103BC000880C0020E80C0020014B1B68184700BF40
:103BD000F40C002038B50B4B98420C4601D0002065
:103BE00038BD0020FEF788FA074B1D7915B9012270
:103BF0001C601A710020FEF781FA002DEFD0112011
:103C0000EEE700BF00200040F40C0020034B984278
:103C100001BF034B00221A601A7170470020004058
:103C2000F40C002010B5124C2278FAB9114B19602F
:103C3000037813F0010F104B1EBFD3F8042542F098
:103C40000102C3F80425D3F8002222F00102C3F8D0
:103C500000224378094A5B01DBB282F80D334FF44E
:103C60000053136001232370002010BD8520FCE762
:103C7000000D0020FC0C002000D0004000E100E01E
:103C8000064B00221A6082B01B680193019B044B13
:103C90000122C3F804231A6002B0704700D100402B
:103CA00000D00040024A0123C2F808335360704735
:103CB00000D00040064A0123C2F808335360054B88
:103CC0004FF40052C3F88020034B00221A70704753
:103CD00000D0004000E100E0000D0020074B002272
:103CE0001A6082B01B680193019B054BD3F808054D
:103CF000044B1B68C0B202B0184700BF00D100409F
:103D000000D00040FC0C0020F7B506792F4D0C23A5
:103D10007343EF183C7A002C56D1EA504B687B6015
:103D2000477903682246D0B2874244D843F3073428
:103D3000C878002CA8BF04F16047C3F30732BABFAC
:103D4000234F02F00F0C07F561474FEA4010C0B255
:103D5000B4BF07F80C0087F80003640901201D4F69
:103D600002F01F0200FA02F247F82420D3F80445BB
:103D70004A7824F0030402F003022243C3F8042526
:103D8000D3F808458A7824F0030402F003022243A2
:103D9000C3F808250A78D3F8104502F00F0224F082
:103DA0000F010A43C3F810250C2303FB06552872A4
:103DB000002003B0F0BD900000F5A07001321C504F
:103DC000185801900198AEE70820F2E7040D002092
:103DD00014ED00E000E100E0036801221A600379BD
:103DE000034A0C2101FB032302221A72704700BF11
:103DF000040D00200368044901221A6103790C2094
:103E000000FB03131A727047040D002038B50368D5
:103E100043F30732C3F3043552090121A94020328C
:103E20000A4D45F822100446D3F8002200254FF031
:103E3000FF32C3F80052C3F80823FFF7DBFF2379F2
:103E4000034A0C2101FB03231D7238BD00E100E091
:103E5000040D00200379044A0C2101FB0323187A86
:103E6000831E584258417047040D00208B00403398
:103E70000268DBB20120D05001F5A87152F8210090
:103E8000704737B54FF4803400688C407BB18B00AD
:103E900003F5A0730025C550C3580193019BC0F8DA
:103EA000044301F5A87140F8212003B030BDC0F8EB
:103EB0000843F6E770B4046840F20116D4F80052E3
:103EC0008E4025EA0605C4F80052D4F800522B4370
:103ED000C4F800329DF80C3070BCFFF7D2BF000070
:103EE0002DE9F341104C114F114E00254FF480384D
:103EF000236883B1D7F8043308FA05F21A420AD0CE
:103F0000002323602368019304F5C040019B80B225
:103F1000D6E9003198470135062D04F10404E7D1B4
:103F200002B0BDE8F08100BF40A1014000A0014007
:103F3000040D00200023435082B043580193019B9D
:103F400002B070470A4610B54FF48E71FFF7F2FFCA
:103F5000136A9168C95C136A01331362C0F81C15B7
:103F600010BD8B690A4610B54FF4847123B9FFF771
:103F7000E1FFD0F8183510BDFFF7DCFF536AD168B8
:103F8000D0F81805C854536A01335362F3E70000B0
:103F90001FB501238DF80030044BCDE90110D3E9A2
:103FA00000126846904705B05DF804FB100D002034
:103FB00030B54C48D0F8043313F4007F85B0054683
:103FC0004DD0D0F82431002B49D04FF49271FFF737
:103FD000B1FF4FF40173C0F80833434B93F8292025
:103FE0000AB9012242603F4902228DF80020D1F82F
:103FF0008024C1F8802403929A690292DA680192BF
:104000000022C3E906226846D3E9001290473548EA
:10401000D0F81C315BB134494A690B6A9A420A46AE
:104020004AD991F82830002B46D1FFF78BFF2D4855
:10403000D0F844318BB14FF4A271FFF77BFF2A4BCC
:1040400093F829200AB1012202609A692AB100225C
:10405000586AD9689A61FFF79BFF05B030BDD5F863
:1040600004335B07D3D5D5F80831002BCFD01E4CD5
:104070001C482146FFF775FF636AA2699A422346EE
:10408000C5D1E269E1684AB12369E3600023606A4F
:10409000A261E3616362FFF77BFFB8E794F8292030
:1040A0000AB901226A600F4A4FF40170C2F808038E
:1040B0000022586A9A61EEE70A484FF48E71FFF7C2
:1040C00039FF5369002BB2D05169029100239168E6
:1040D0008DF80030019153616846D2E9001398478A
:1040E000A5E700BF00200040100D00201F2886BF5C
:1040F00000F01F00044B4FF0A04300F5E0700222D7
:1041000043F82020704700BF000300502DE9F8431A
:10411000634B057991462C2202FB0532064692F844
:104120002A200C469846002A40F0B6805D49006877
:10413000FFF750FD0746002840F0B08021684A1C78
:1041400010D01F2987BF584A01F01F030B464FF0BC
:10415000A0420120984003F5E073C2F8080503204F
:1041600042F823006068431C0DD01F288BBF00F06D
:104170001F0303464C4A4FF0A04203F5E0734FF093
:10418000000C42F823C03368A269C3F8242594F8D0
:1041900014C0627DBCF1010F4CEA0202C3F86C2529
:1041A000C3F81405C3F80C152BD1A168481C0DD019
:1041B0001F298BBF01F01F020A463B484FF0A04069
:1041C00002F5E0724FF0000C40F822C0E068421C9B
:1041D00013D01F2887BF344A00F01F0C84464FF0CD
:1041E000A0424FF0010E0EFA0CFE0CF5E07CC2F876
:1041F00008E54FF0030E42F82CE0C3F80805C3F8B9
:1042000010152C236B4308EB0302C2F804902269BB
:1042100048F80320B9F1000F2BD03068247F4FF409
:104220008E71FFF787FE30684FF4A271FFF782FEB0
:1042300032681E4BC2F80433110B42F30732002AD6
:10424000A8BF02F160404FEA4413BABF184801F01A
:104250000F0400F56140DBB2B4BF035580F80033B2
:1042600001F01F01012303FA01F15209114B43F838
:10427000221033680422C3F800252C2303FB058396
:104280000022C3E9062283F829205A61012283F81B
:104290002A203846BDE8F8830827FAE71127F8E70F
:1042A000100D0020B13F000000030050800002000C
:1042B00014ED00E000E100E02DE9F041036804792D
:1042C000244D0022C3F800252C2202FB0452014693
:1042D00052686AB1204AC3F8082343F30732C3F394
:1042E000043652090120B04020321C4E46F822000C
:1042F000D3F80C05D3F81485D3F80865D3F81075F6
:104300004FF0FF329042C3F81425C3F80C25C3F8D0
:104310000825C3F8102501D0FFF7E8FEB8F1FF3FEC
:1043200002D04046FFF7E2FE7A1C02D03846FFF783
:10433000DDFE731C02D03046FFF7D8FE0868FFF799
:1043400065FC2C2303FB0454002384F82A306360AB
:10435000BDE8F081100D00208402020000E100E0C1
:104360002DE9F047204F90F804904FF02C0808FBFF
:10437000097405466669002E34D162610068A16047
:1043800026624FF48E7184F82860FFF7D3FD286809
:10439000012383602146FFF7D5FD6368A0468BB9F2
:1043A0002868D4F814A0236A9A4511D82A68D2F84C
:1043B0001C31002BFBD00123D3602C2303FB09739A
:1043C00000225A613046BDE8F08794F828303BB9A6
:1043D000D0F81C31002BF8D04146FFF7B3FDE2E7DF
:1043E0000F26EAE71126EDE7100D002000234350C9
:1043F00082B043580193019B02B070471FB501235F
:104400008DF80030044BCDE90110D3E90012684665
:10441000904705B05DF804FB3C0D00201F2886BFC7
:1044200000F01F00044B4FF0A04300F5E0700222A3
:1044300043F82020704700BF000300507FB5434A77
:10444000D2F82461002E60D010464FF49271FFF72D
:10445000CDFF02238DF80030D2F88034C2F88034CA
:104460000393D2F83C350293394BDA68019200226B
:10447000C3E906226846D3E9001290473348D0F8D2
:10448000443173B14FF4A271FFF7B0FF304B9A691A
:104490003AB10022C3E90622D968D0F83C05FFF7FB
:1044A000ADFF2A48D0F82031ABB14FF49071FFF73F
:1044B0009DFF0123C360264B5A6962B1D0F84C15A9
:1044C0000291002299688DF8002001915A61684696
:1044D000D3E9001290471D48D0F858319BB14FF4F2
:1044E000AC71FFF783FF1A4B5A6962B1D0F84C15D3
:1044F0000291002299688DF8002001915A61684666
:10450000D3E90012904704B070BDD2F81031002BEF
:10451000B4D04FF488711046FFF768FF0C4BD2F807
:104520003C0599698842A9D1DC69D96864B1D2F89F
:10453000005225F02005C2F800521A699C61DA6029
:10454000DE61FFF75BFF99E79C61FAE7002000401E
:104550003C0D00202DE9F8436A4B06799146242250
:1045600002FB0632044692F820200D469846002AA7
:1045700040F0C38064490068FFF72CFB0746002821
:1045800040F0BD802868421C10D01F2887BF5F4ABA
:1045900000F01F0303464FF0A0420121994003F5AC
:1045A000E073C2F80815032142F8231069684B1C18
:1045B0000DD01F298BBF01F01F030B46534A4FF04C
:1045C000A04203F5E0734FF0000C42F823C02368CB
:1045D000AA69C3F8242595F814C06A7DBCF1010FBF
:1045E0004CEA0202C3F86C25C3F80C05C3F8141595
:1045F0002BD1A968481C0DD01F298BBF01F01F02C9
:104600000A4642484FF0A04002F5E0724FF0000C1D
:1046100040F822C0E868421C13D01F2887BF3B4ADD
:1046200000F01F0C84464FF0A0424FF0010E0EFA2E
:104630000CFE0CF5E07CC2F808E54FF0030E42F8E2
:104640002CE0C3F80805C3F810152423734308EBC6
:104650000302C2F804902A6948F80320B9F1000F58
:104660003AD020682A7F4FF48871FFF7BFFE206898
:104670004FF49071FFF7BAFE20684FF49271FFF784
:10468000B5FE20684FF4A271FFF7B0FE20684FF42A
:10469000AC71FFF7ABFE23681D49C3F80413190B77
:1046A00043F30733002BAEBF03F1604001F00F0569
:1046B00018484FEA4212A8BF00F56140D2B2B4BF19
:1046C000425580F8002301F01F01012202FA01F196
:1046D0005B09114A42F8231023680822C3F8002519
:1046E000242303FB06830022C3E906225A61012228
:1046F00083F820203846BDE8F8830827FAE7112719
:10470000F8E700BF3C0D00203D44000000030050CE
:104710001003420014ED00E000E100E02DE9F0415B
:104720002E4E0579242303FB056304465B6800686D
:104730006BB12B4BC0F8083340F30733C0F304319F
:104740005B0901228A402033264941F82320D0F812
:104750000032012223F02003C0F800324FF4AC7184
:104760004260FFF743FE2368DA60D3F85821002A3D
:10477000FBD00022C3F80025D3F80C05D3F814852C
:10478000D3F80815D3F810754FF0FF329042C3F8F4
:104790000C25C3F81425C3F80825C3F8102501D04B
:1047A000FFF73CFEB8F1FF3F02D04046FFF736FE70
:1047B0007A1C02D03846FFF731FE4B1C02D0084667
:1047C000FFF72CFE2068FFF721FA242303FB056581
:1047D000002385F820306B60BDE8F0813C0D00209F
:1047E0001003420000E100E001F06043B3F1005F1C
:1047F0002DE9F041064638D11E4B0779242505FBEB
:10480000073598466C69002C31D16A610068A9604F
:104810004FF49071FFF7EAFD4FF4AC713068FFF789
:10482000E5FD33686A69A968C3F84415C3F84825EB
:1048300001229A606A68AAB9D3F82021D3F85841B6
:104840001AB9002CF8D00F2407E0002CFBD101226C
:10485000DA60D3F85821002AFBD0242303FB078712
:1048600000237B612046BDE8F0811024FAE7112483
:10487000F8E700BF3C0D00200220FCF71FBC000041
:104880002DE9F04780460D46FCF746FC0328044618
:1048900010D8012D10D0022D30D05DB91A48FDF787
:1048A0003BFB1A4B04EB440213449E78184B1B5DF0
:1048B000B34219D0BDE8F087144D00EB4002A918AF
:1048C000AE5C4A78470052B1DFF84C900E484A4639
:1048D0004FF48041FDF707FB08B989F800803B19C8
:1048E0002B449A780A4B1A55002EE3D0094B1B68CB
:1048F000002BDFD03046BDE8F047184700EB4004FE
:10490000024804446678EFE758010020620D002059
:104910007D0D0020780D0020600D00200078022120
:10492000FFF7AEBF08B5094B1B7853B10020FCF769
:1049300093FB0120FCF790FBBDE808400320FCF747
:104940008BBBBDE80840FCF79BBB00BF610D00209E
:10495000F8B57B4C237805461BB100232370FFF785
:10496000E1FF172D00F28880DFE805F00C171743F0
:1049700054657680888D888D959A9A9A9A9AC4C93A
:10498000D1D9E4E4FFF7CEFF6E48FDF7C5FA6E4BD0
:10499000002204461A702046F8BD0020FCF734FBC4
:1049A000F8B10020FCF758FB022D0CBF4FF4E16179
:1049B0004FF47A61644B1D704FF400404FF47A74E9
:1049C0000025E0FB01454FF4FA620023204629460A
:1049D00001F010FC00220146BDE8F8405948FDF7FF
:1049E00082BAFCF725FB022D0CBFC8214FF4C87119
:1049F000E0E70020FCF708FB40B10020FCF72CFBAF
:104A00004FF44871504B03221A70D5E7FCF710FBA6
:104A1000C821F7E70020FCF7F7FA38B10020FCF7CF
:104A20001BFB4FF47A61484B0422EDE7FCF700FBD7
:104A30004FF4C871F7E70020FCF7E6FA48B1002010
:104A4000FCF70AFB404B05221A7040F6CD410022CC
:104A5000C2E7FCF7EDFAF5E70020FCF72FFB3A4B35
:104A600006221A70002240F26661B5E70020FCF7CA
:104A7000DFFA354B07221A7000248CE701202070E2
:104A8000FCF71CFBEEE701202070FCF717FB00226F
:104A90004FF40051A0E7FCF702FB2B4B0C22EAE796
:104AA0002A482B4EFDF738FAD5F1110504461CD0E3
:104AB000D8B9012D13D0C8235D434FF400474FF4FC
:104AC0007A7000214FF4FA620023C7FB050101F060
:104AD00091FB224601461D48FDF705FA04460220D7
:104AE000FCF7A6FA0123337055E70220FCF7B4FA6D
:104AF0000023F8E7FFF716FF134B1222BBE7FFF77F
:104B000011FF0020FCF794FA0F4B1322B3E7FFF7D5
:104B100009FF0120FCF78CFA0B4B1422ABE7FFF7DF
:104B200001FF0020FCF784FA0120FCF781FA064B14
:104B30001522A0E7FCF7B3FA034B1D709CE700BFFA
:104B4000740D0020800100207C0D00203001002029
:104B5000610D0020044B1B68DB0703D5034B18785D
:104B6000FFF7F6BE704700BF700D00207C0D0020DF
:104B7000032801D8FCF7BCBA0020704738B51C4B9D
:104B800018601C4B10F00204054619601AD01A4B2D
:104B90001A480E221A700F22DA7010229A7111220E
:104BA0005A72042140F23332FDF76AF8044648B9DC
:104BB000FDF7BCF8044628B90146114A1148FDF733
:104BC00087F90446EB0711D50120FCF7B7FA6CB959
:104BD00021460D4A0D48FDF77BF9044630B9BDE882
:104BE00038400B4A0B480121FDF772B9204638BD09
:104BF000700D0020780D0020620D002004AF02002F
:104C00001D49000028AF0200554B00002CAF0200E8
:104C10007948000024AF020010B50C21044606F0CC
:104C20002FFA6FF0020101708170042101710121DE
:104C30004171022181710621002201720821427214
:104C40008172C2724FF0FF33C271054A4370C37064
:104C5000044953802046BDE8104014F0C1BE00BF97
:104C600034210020694C0000F0B585B0054606F0FF
:104C7000B5F904461921284606F033FB6378002B6A
:104C800046D12379002B43D026494A884FF6FF733B
:104C90009A423DD1244FB0F8010063790B704880EF
:104CA0007988022982B209D92048214C2149241A45
:104CB000E408240444F00300FBF7C3FF00221E486D
:104CC000FF210AF087FC06464242F0B17B889BB187
:104CD00010460392FCF770FA154C039A03461348EA
:104CE000241AF121E408240401911449009144F0AC
:104CF00001001349FBF7BBFFFBF716FE0028FBD1B1
:104D0000C6F59C402030FDF727F80320FCF790F90A
:104D10002DB1284605B0BDE8F04006F003B905B056
:104D2000F0BD00BF342100201C000020F4A30200CD
:104D30002CA4020030AF02001D51000062AF02003F
:104D40004BAF020030B5364C85B0054601F0DAF9BC
:104D500062884FF6FF739A4236D00E2D13D00F2D76
:104D600034D0304B5B88022B2ED92F482F4B304943
:104D70001B1ADB081B042A4643F0030005B0BDE8FC
:104D80003040FBF755BF00252379EBB90123237190
:104D90000AF084FE2946A060032226480AF0FAFBA6
:104DA00010F11D0F054613D11E4B5B88012B09D94D
:104DB0001E481D4B2049C01AC008000440F00200E4
:104DC000FBF732FF0023237105B030BD0125DBE77F
:104DD00042420028F8D0134B5B88A3B110460392DF
:104DE000FCF7EAF9114C039A03460F48241A4FF4D2
:104DF000D571E408240401911049009144F00100A8
:104E00000F49FBF734FFFBF78FFD0028FBD1C5F5F9
:104E10009C40203005B0BDE83040FCF79DBF00BF8E
:104E2000342100201C000020F4A302002CA4020066
:104E3000A5AF0200454E0000C6AF020062AF0200FF
:104E40004BAF0200F0B56C4D85B006460AF026FE69
:104E5000AB686FF00042C41A944228BF1C1A412C60
:104E6000B6FA86F7304694BF002401247F09FFF785
:104E70007FFE68BB44BB22466048394606F03FF8D7
:104E80000646424200B35E4B5B88A3B110460392D4
:104E9000FCF792F95B4C039A03465B48241A40F2F4
:104EA0005311E408240401915849009144F0010091
:104EB0005749FBF7DCFEFBF737FD0028FBD1C6F5B1
:104EC0009C402030FCF748FF00232B7105B0F0BD5B
:104ED000002C67D0002239464E4806F010F80746ED
:104EE000424200B3464B5B88A3B110460392FCF7E5
:104EF00063F9444C039A03464348241A40F25F1175
:104F0000E408240401914149009144F00100404922
:104F1000FBF7ADFEFBF708FD0028FBD1C7F59C4071
:104F20002030FCF719FF31463B4813220AF032FBD0
:104F300010F11D0F06460ED1314B5B88012BC3D9F2
:104F4000314B30483549C01AC008000440F0020017
:104F5000FBF76AFEB8E742420028B7D0284B5B88CF
:104F6000A3B110460392FCF727F9264C039A034697
:104F70002548241A4FF4B471E4082404019123490C
:104F8000009144F001002249FBF771FEFBF7CCFCD5
:104F90000028FBD1C6F59C40203005B0BDE8F040AC
:104FA000FCF7DABE31461C4803220AF0F3FA10F18E
:104FB0001D0F0646C0D04242002887D0104B5B88A8
:104FC000A3B110460392FCF7F7F80E4C039A034680
:104FD0000D48241A4FF4BB71E408240401910B49D5
:104FE000009144F001000A49FBF741FEFBF79CFCED
:104FF0000028FBD1CEE700BF34210020A5500000DF
:105000001C0000202CA40200F4A3020062AF0200E6
:105010004BAF020021500000454E0000C6AF020019
:1050200070B51B4B5B88B1FA81F4022B86B0054644
:105030000A464FEA541409D91648174B17491B1A48
:10504000DB081B0443F00300FBF7F2FD00263246A9
:1050500000960223112128460BF0D2FD0F230221D6
:1050600004704370084409F0E7FD4FF4827308228E
:10507000CDE902320A4A04960123019312F8023B59
:1050800000930146022328460BF042FD06B070BD96
:105090001C000020F4A302002CA40200F5AF0200C3
:1050A0003421002030B5184A52880B1E18BF012346
:1050B000022A89B005460CD91448154C0793241AC6
:1050C000E40824040A4644F003001249FBF7B0FD4B
:1050D000079B002422460094112128460BF090FDE6
:1050E0004FF482730622CDE902320B4A0494012365
:1050F000019312F8023B00930146022328460BF06D
:1051000007FD09B030BD00BF1C000020F4A3020061
:105110002CA4020011B00200342100207FB5044607
:10512000002862D0444D6B88022B09D94348444B78
:1051300044491B1ADB081B0443F00300FBF774FD12
:105140008222414821460AF025FA06464242F8B139
:105150006B88A3B110460392FCF72EF8384C039AE3
:1051600003463648241A4FF49171E408240401914F
:105170003649009144F001003549FBF778FDFBF713
:10518000D3FB0028FBD1C6F59C402030FCF7E4FDA2
:1051900040F245122F4800210AF0FCF9064642422F
:1051A000002847D06B88A3B110460392FCF704F89F
:1051B000234C039A03462148241A4FF49271E408C1
:1051C000240401912149009144F001002049FBF79A
:1051D0004EFDFBF7A9FB0028FBD1C6F59C40203013
:1051E00004B0BDE87040FCF7B7BD1A4805F06BFE8F
:1051F00005464242F0B1104B5B88A3B110460392C2
:10520000FBF7DAFF0E4C039A03460C48241A40F2CF
:105210002911E408240401910C49009144F0010093
:105220000B49FBF724FDFBF77FFB0028FBD1C5F5FD
:105230009C40D4E704B070BD1C000020F4A3020021
:105240002CA4020029B00200194C000062AF020039
:105250004BAF02001D510000F0B587B0002305A937
:105260000446059311F0FCF90546204606F0BAF80D
:10527000063D07460221204600F028FF012D20466A
:1052800000F2848000F066FC0646424200B3554BB3
:105290005B88A3B110460392FBF78EFF524D039A31
:1052A000034652482D1A4FF4F071ED082D04019178
:1052B0004F49009145F001004E49FBF7D8FCFBF740
:1052C00033FB0028FBD1C6F59C402030FCF744FDA1
:1052D000002F40F08180484B5A884FF6FF739A4266
:1052E0007AD18222454821460AF054F905464242C5
:1052F00000B33C4B5B88A3B110460392FBF75CFF05
:10530000394C039A03463948241A40F2E711E4085D
:10531000240401913649009144F001003549FBF71E
:10532000A6FCFBF701FB0028FBD1C5F59C40203013
:10533000FCF712FD40F24512314800210AF02AF92B
:105340000546424200B3274B5B88A3B11046039247
:10535000FBF732FF244C039A03462448241A40F2F8
:10536000E911E408240401912149009144F001006D
:105370002049FBF77CFCFBF7D7FA0028FBD1C5F5E9
:105380009C402030FCF7E8FC07B0F0BD00F0E2FBE9
:105390000646424200B3134B5B88A3B1104603920A
:1053A000FBF70AFF104D039A034610482D1A40F2EE
:1053B000F111ED082D0401910D49009145F0010016
:1053C0000C49FBF754FCFBF7AFFA0028FBD1C6F5FC
:1053D0009C402030FCF7C0FC002CD5D0204605F0C6
:1053E000A1FDD1E71C0000202CA40200F4A30200C0
:1053F00062AF02004BAF020034210020194C0000C4
:105400001D51000030B587B0FCF730FD08B1FCF746
:10541000A3FC4FF480410020FBF7A0F908B1FCF792
:105420009BFCFBF7B9F836490320FFF7A7FB08B14F
:10543000FCF792FCFBF724FE324B00241C70324B2D
:105440001C80324B1C7006F069FC06F069FC04A855
:10545000FBF714FF04A80AF0C7FB4FF480300AF0F2
:10546000E3FB204600F010FB062009F05DFBC320A3
:1054700009F060FB0220FFF77BFB80F00100C0B267
:105480000AF0AAFB02F0E4F8437B0BB900F084FEBB
:105490001F4C0C220021204601F0A3F84FF6FF73A9
:1054A0001C48638001F036FD0AF0C8FB0546424205
:1054B00000B3194B5B88A3B110460392FBF77CFE47
:1054C000164C039A03461648241A40F22521E40894
:1054D000240401911349009144F001001249FBF7A3
:1054E000C6FBFBF721FA0028FBD1C5F59C40203014
:1054F000FCF732FC0AF0A4FBFBF716FAFAE700BF50
:10550000454D0000DD020020DE020020E002002008
:1055100034210020350200201C0000202CA40200B1
:10552000F4A3020062AF02004BAF0200054B1B6800
:10553000082B01BF044B1868B0FA80F0400918BF6F
:1055400000207047300100103401001008B54FF002
:1055500080430022C3F80C21C3F81021C3F838257A
:105560004FF0805203F54043D2F80414C3F82015DD
:10557000D2F80814C3F82415D2F80C14C3F828156F
:10558000D2F81014C3F82C15D2F81414C3F830153F
:10559000D2F81814C3F83415D2F81C14C3F8401507
:1055A000D2F82014C3F84415D2F82414C3F84815CF
:1055B000D2F82814C3F84C15D2F82C14C3F850159F
:1055C000D2F83014C3F85415D2F83414C3F8601567
:1055D000D2F83814C3F86415D2F83C14C3F868152F
:1055E000D2F84014C3F86C15D2F84424C3F87025DF
:1055F000FFF79CFF10B1384B384A1A60FFF796FF4F
:1056000018B1374BFB22C3F81825FFF78FFF48B1BD
:105610003449354B0A681B6822F00F0203F00F0370
:1056200013430B60FFF782FF18B1304B4FF4007249
:105630001A604FF08043D3F80024D20744BF6FF0C4
:105640000102C3F800242A4AD2F8883043F47003D8
:10565000C2F88830BFF34F8FBFF36F8F4FF0102326
:10566000D3F80022002A03DBD3F80432002B2FDA10
:10567000204B0122C3F80425D3F80024002AFBD0D4
:105680004FF010221221C2F80012D3F80024002A91
:10569000FBD04FF010231222C3F80422154B1A46F8
:1056A000D3F800140029FBD00021C3F80415D2F868
:1056B0000034002BFBD0BFF34F8F0D490E4BCA684F
:1056C00002F4E0621343CB60BFF34F8F00BFFDE7EE
:1056D0000A4B0B4A1A6008BD8C56004048810300F3
:1056E00000F00040E40E00405802001040960240D6
:1056F00000ED00E000E001400400FA05C0020020D7
:105700000090D003022012F0E1BD000030B52C4D16
:105710002C4C2B78207085B0EBB12B480022FF2158
:1057200009F058FF294B002844D11870284B2870E5
:105730005B88022B0FD9274B27482178274AC01AAC
:10574000C008274B0004002918BF1A4640F0030088
:105750002449FBF76DFA24480022FF2109F03AFFA3
:1057600010F11C0F054628D0424230B3184B5B881D
:10577000A3B110460392FBF71FFD174C039A034693
:105780001448241A40F24D31E408240401911749C9
:10579000009144F001001649FBF769FAFBF7C4F8E1
:1057A0000028FBD1C5F59C40203005B0BDE8304055
:1057B000FCF7D2BA01221A70CDE705B030BD00BFA8
:1057C00041210020462100200557000043210020F0
:1057D0001C000020F4A302002CA4020043B002002D
:1057E00038A6020048B002000D57000079B0020050
:1057F0004BAF02007FB5344B1B78002B61D033498F
:105800000B78002B5DD0324B1A78D2B100221A707F
:10581000304B0A705B88022B53D92F4B2F48304AEC
:10582000C01A304B1978304BC008002918BF1A46EF
:1058300000042E4940F0030004B0BDE87040FBF7BF
:10584000F7B92B4D2B78002B3BD12A492A480B78EE
:1058500001229A40B2F5617FDCBF01330B70274B08
:10586000C8BF4FF461725A4300214FF47053B2FB2A
:10587000F3F209F08FFE0646424200B3154B5B88F7
:10588000A3B110460392FBF797FC144C039A03460E
:105890001148241A40F2ED21E4082404019118492A
:1058A000009144F001001749FBF7E1F9FBF73CF8E0
:1058B0000028FBD1C6F59C402030FCF74DFA0123AF
:1058C0002B7004B070BD00BF452100204121002095
:1058D000432100201C000020F4A302002CA402009D
:1058E000B4B002004621002038A6020048B00200F1
:1058F00040210020442100200557000040420F00B5
:1059000079B002004BAF02007FB510F097FC002881
:1059100051D12A4B1B78002B4DD0294A137803F024
:10592000FF01002B47D1274B274819700378002B24
:1059300041D101210170254813700370244A254884
:105940001370037043F2DC222348244E09F022FE38
:1059500005464242F8B17388A3B110460392FBF7A3
:105960002BFC1F4C039A03461E48241A40F21331A5
:10597000E408240401911C49009144F001001B49F2
:10598000FBF775F9FAF7D0FF0028FBD1C5F59C406D
:105990002030FCF7E1F97388022B0CD9114B104829
:1059A0001349C01AC008000440F0030004B0BDE869
:1059B0007040FBF739B904B070BD00BF452100202D
:1059C00046210020402100204121002043210020C9
:1059D00042210020442100200D5700001C0000201F
:1059E0002CA40200F4A3020079B002004BAF020025
:1059F000B9B0020030B585B010F020FC044670BB91
:105A0000194B1A785AB31870FFF77EFF41221748D6
:105A1000214609F0BFFD0546424200B3144B5B88A6
:105A2000A3B110460392FBF7C7FB124C039A03463F
:105A30001148241A40F25F31E408240401910F490F
:105A4000009144F001000E49FBF711F9FAF76CFFE1
:105A50000028FBD1C5F59C402030FCF77DF9094BAF
:105A600000221A7005B030BD46210020F557000015
:105A70001C0000202CA40200F4A3020079B0020054
:105A80004BAF02004221002007B500BB124B0C2295
:105A9000C3F824270A22D3F81015013AC1F3402194
:105AA0000191F8D1019B73B90C4B5B88022B09D98A
:105AB0000B480C4B0C49C01AC008000440F003000E
:105AC000FBF7B2F80120044B0222C3F8242703B0ED
:105AD0005DF804EB0AF096B8000300501C000020AB
